:100000000C9473000C944F050C9428050C949B00E1
:100010000C949B000C949B000C949B000C94760514
:100020000C949B000C949B000C949B000C949B00E4
:100030000C949B000C949B000C949B000C949B00D4
:100040000C94DE040C949B000C94A7080C9481087B
:100050000C949B000C949B000C949B000C949B00B4
:100060000C949B000C949B00005EBCE2613FDD831E
:10007000C29C7E20A3FD1F41009D23BE46DB65F888
:100080008C11AF32CA57E974020000000800020167
:100090000000030407000000000000000000000052
:1000A00000250028002B0000000000240027002A63
:1000B00000000000002300260029000404040404BA
:1000C0000404040202020202020303030303030105
:1000D00002040810204080010204081020010204DC
:1000E000081020002C0411241FBECFEFD8E0DEBF83
:1000F000CDBF11E0A0E0B1E0E8EBF4E102C0059073
:100100000D92AE31B107D9F721E0AEE1B1E001C007
:100110001D92A13FB207E1F710E0C3E7D0E004C0B1
:100120002197FE010E940109C237D107C9F70E9439
:10013000F6050C945A0A0C9400003FB7F89480918D
:100140002B0190912C01A0912D01B0912E0126B58B
:10015000A89B05C02F3F19F00196A11DB11D3FBFFF
:10016000BA2FA92F982F8827BC01CD01620F711DCE
:10017000811D911D42E0660F771F881F991F4A95C8
:10018000D1F708958F929F92AF92BF92CF92DF9254
:10019000EF92FF926B017C010E949D004B015C017C
:1001A000C114D104E104F104B9F00E949D00681962
:1001B00079098A099B09683E73408105910580F39E
:1001C00021E0C21AD108E108F10888EE880E83E028
:1001D000981EA11CB11CE4CFFF90EF90DF90CF9050
:1001E000BF90AF909F908F90089590E0FC01E757EB
:1001F000FF4F2491FC01E153FF4F3491FC01E55482
:10020000FF4FE491EE23C9F0222339F0233001F1AE
:10021000A8F4213019F1223029F1F0E0EE0FFF1F90
:10022000E356FF4FA591B4918FB7F894EC9161110B
:1002300026C030953E233C938FBF08952730A9F008
:100240002830C9F0243049F7809180008F7D03C0A9
:10025000809180008F7780938000DFCF84B58F7787
:1002600084BDDBCF84B58F7DFBCF8091B0008F77CD
:100270008093B000D2CF8091B0008F7DF9CF3E2B1C
:10028000DACF0895AF92BF92CF92DF92EF92FF92B2
:100290000F931F93CF93DF936C017B018B01040FAE
:1002A000151FEB015E01AE18BF08C017D10759F04A
:1002B0006991D601ED91FC910190F081E02DC6018C
:1002C0000995892B79F7C501DF91CF911F910F9186
:1002D000FF90EF90DF90CF90BF90AF900895DC013A
:1002E00080E0615090F09D919827E92FEF70F0E049
:1002F000E859FF4F2491E92FE295EF70F0E0E858BC
:10030000FF4FE491822F8E27ECCF0895DC012C91D2
:100310001196ED91FC91F8948181822B81839281D9
:10032000322F30959323928387E090E00197F1F785
:1003300081818323818383E290E00197F1F79081AB
:100340007894EFECF0E03197F1F7922381E009F433
:1003500080E00895FC0190810180F281E02D292F39
:10036000209560FF14C0F89482818223828381816A
:10037000892B8183A3E2B0E01197F1F78281982B5A
:100380009283789487ED90E00197F1F70895F894BF
:100390008281822382838181892B8183AFEFB0E0C8
:1003A0001197F1F78281982B928378948FE090E0F7
:1003B000EBCFDF92EF92FF920F931F93CF93DF93D8
:1003C000EC01D62EE42E08E010E0FF24F39461E067
:1003D0008D2D8F2109F460E0CE010E94AA01FF0C4F
:1003E00001501109A1F7E11010C0F894E981FA81D8
:1003F00091818881809589238183E981FA81928125
:1004000088818095892382837894DF91CF911F9191
:100410000F91FF90EF90DF900895EF92FF920F936E
:100420001F93CF93DF938C017B0140E065E50E9431
:10043000D901E70188E0E80EF11C699140E0C801AC
:100440000E94D901CE15DF05C1F7DF91CF911F9131
:100450000F91FF90EF900895FC0190810180F2814F
:10046000E02DF8948181292F20958223818378942F
:100470003DE743E050E0315029F1DA011197F1F7FF
:1004800080818923C1F3F8948281822382838181D0
:10049000892B81837894ABE7B7E01197F1F7F89453
:1004A000818182238183A3E1B1E01197F1F78081FB
:1004B000982381E009F080E07894E3E6F6E0319754
:1004C000F1F7089580E008956F927F928F929F9246
:1004D000AF92BF92CF92DF92EF92FF920F931F9352
:1004E000CF93DF938C01EB018091D5019091D601E0
:1004F0000E942C02882309F43FC0B8018091D501E5
:100500009091D6010E940D0240E06EEB8091D501E2
:100510009091D6010E94D9017E016E0189E0C80E3A
:10052000D11C8E01A090D501B090D60188E0882E14
:10053000912C712C66246394C5010E94860181115F
:100540007628660CE1E08E1A9108B1F7F8017192F5
:100550008F01CE16DF0631F78091D5019091D6013B
:100560000E942C02813041F4F70181917F018111B9
:1005700005C0E017F107C1F790E008C068E0CE01C0
:100580000E946F0191E028852813F6CF892FDF9113
:10059000CF911F910F91FF90EF90DF90CF90BF9080
:1005A000AF909F908F907F906F900895FC01538D36
:1005B000448D252F30E0842F90E0821B930B54173D
:1005C00010F0CF96089501970895FC01918D828DCA
:1005D000981761F0A28DAE0FBF2FB11D5D968C9163
:1005E000928D9F5F9F73928F90E008958FEF9FEFA2
:1005F0000895FC01918D828D981731F0828DE80F5E
:10060000F11D858D90E008958FEF9FEF0895FC0117
:10061000918D228D892F90E0805C9F4F821B9109E4
:100620008F73992708958FE291E00E94070321E0DC
:10063000892B09F420E0822F0895FC01A48DA80FD6
:10064000B92FB11DA35ABF4F2C91848D90E0019614
:100650008F739927848FA689B7892C93A089B18934
:100660008C91837080648C93938D848D981306C0D5
:100670000288F389E02D80818F7D80830895EF9239
:10068000FF920F931F93CF93DF93EC0181E0888F4C
:100690009B8D8C8D98131AC0E889F989808185FF1C
:1006A00015C09FB7F894EE89FF896083E889F989BE
:1006B00080818370806480839FBF81E090E0DF91C0
:1006C000CF911F910F91FF90EF900895F62E0B8D13
:1006D00010E00F5F1F4F0F731127E02E8C8D8E11CE
:1006E0000CC00FB607FCFACFE889F989808185FF35
:1006F000F5CFCE010E941D03F1CFEB8DEC0FFD2F46
:10070000F11DE35AFF4FF0829FB7F8940B8FEA89EF
:10071000FB8980818062CFCFCF93DF93EC01888DFE
:100720008823B9F0AA89BB89E889F9898C9185FD6C
:1007300003C0808186FD0DC00FB607FCF7CF8C91FA
:1007400085FFF2CF808185FFEDCFCE010E941D0392
:10075000E9CFDF91CF910895BF92CF92DF92EF92D0
:10076000FF920F931F93CF93DF93EC01B62EC72E0A
:100770008D85811105C0CE010E942C0281110EC011
:100780001B861D861C8680E0DF91CF911F910F9103
:10079000FF90EF90DF90CF90BF90089540E060EF22
:1007A000CE010E94D90101E0E12CD12C11E0CE0153
:1007B0000E948601F82ECE010E94860191E0F91276
:1007C00018C0813099F51134D8F2DB86D11002C0FF
:1007D00081E08D878B81882399F22396EB2DFC2D68
:1007E000CF01089629912193E817F907D9F781E0FD
:1007F000CBCFEE2DF0E0F8120FC08B851817A0F4C8
:10080000DE01AE0FBF1F13968C91802379F4F12C7B
:10081000193008F41C87D12EEC0FFD1F8381902F17
:100820009095892383830AC08113F1CFFE01EE0DD9
:10083000F11D8381802B8383FF24F3946F2DCE01E0
:100840000E94AA011F5F000F11F4E39401E087E00A
:100850008E1508F0ACCFB7CFCF93DF931092320153
:100860001092310188EE93E0A0E0B0E08093330174
:1008700090933401A0933501B09336018FE091E05D
:100880009093300180932F0185EC90E090933C0190
:1008900080933B0184EC90E090933E0180933D0176
:1008A00080EC90E09093400180933F0181EC90E0D8
:1008B000909342018093410182EC90E09093440137
:1008C0008093430186EC90E090934601809345012C
:1008D000109248011092490110924A0110924B0166
:1008E00041ED50E0FA0164918DEB90E0FC01249120
:1008F0002223C1F030E0220F331FF901E955FF4FE9
:10090000A591B491F901E356FF4FC591D4917FB7FA
:10091000F8943C91262F209532233C933881232351
:1009200028837FBFFA0144914093E301FC01849145
:10093000E82FF0E0EE0FFF1FEF54FF4F85919491E9
:100940009093E5018093E4011092EE011092F00182
:100950001092EF011092ED011092EC011092EB0158
:100960001092EA011092E9011092E8011092E70159
:100970001092E6011092D3011092D4011092CC0192
:1009800089E08093CF0181E08093D0018093D101F1
:100990008093D2011092CD011092E2011092E101F8
:1009A0008FEF8093DF011092E00183EE91E090934E
:1009B000D6018093D501DF91CF9108951F920F92B8
:1009C0000FB60F9211242F933F938F939F93AF9362
:1009D000BF938091270190912801A0912901B091A6
:1009E0002A013091260123E0230F2D3758F5019677
:1009F000A11DB11D2093260180932701909328010A
:100A0000A0932901B0932A0180912B0190912C0190
:100A1000A0912D01B0912E010196A11DB11D8093D1
:100A20002B0190932C01A0932D01B0932E01BF9127
:100A3000AF919F918F913F912F910F900FBE0F908B
:100A40001F90189526E8230F0296A11DB11DD2CF45
:100A50001F920F920FB60F9211242F933F934F9333
:100A60005F936F937F938F939F93AF93BF93EF9316
:100A7000FF93E0910301F09104010995FF91EF913B
:100A8000BF91AF919F918F917F916F915F914F91A6
:100A90003F912F910F900FBE0F901F9018951F92AE
:100AA0000F920FB60F9211242F933F934F935F93A2
:100AB0006F937F938F939F93AF93BF93EF93FF9326
:100AC000E0910101F09102010995FF91EF91BF9131
:100AD000AF919F918F917F916F915F914F913F91D6
:100AE0002F910F900FBE0F901F9018951F920F928D
:100AF0000FB60F9211242F933F934F935F936F93F1
:100B00007F938F939F93AF93BF93EF93FF938091C6
:100B1000220190912301A0912401B0912501892BFC
:100B20008A2B8B2BC1F190912101809100008927A4
:100B3000809300008091220190912301A0912401D3
:100B4000B0912501181619061A061B069CF480910F
:100B5000220190912301A0912401B09125010197D8
:100B6000A109B1098093220190932301A09324014C
:100B7000B0932501FF91EF91BF91AF919F918F911C
:100B80007F916F915F914F913F912F910F900FBE89
:100B90000F901F90189580910001E8E8F0E0E49133
:100BA0009FEF90930001E13051F030F0E23069F0B6
:100BB00060E00E94F500DECF10926E00F9CF9091B8
:100BC0006F009D7F90936F00F3CF909170009D7F99
:100BD0009093700091E09093B0009091B100987F55
:100BE00094609093B1001092B300E2CFCF93DF9363
:100BF000CDB7DEB761970FB6F894DEBF0FBECDBF9D
:100C0000789484B5826084BD84B5816084BD85B5E7
:100C1000826085BD85B5816085BD80916E008160F3
:100C200080936E0010928100809181008260809399
:100C3000810080918100816080938100809180009B
:100C40008160809380008091B10084608093B100C6
:100C50008091B00081608093B00080917A008460C0
:100C600080937A0080917A00826080937A008091EC
:100C70007A00816080937A0080917A008068809306
:100C80007A001092C100ECEDF0E02491E8ECF0E085
:100C90008491882399F090E0880F991FFC01E95511
:100CA000FF4FA591B491FC01E356FF4F85919491BC
:100CB0008FB7F894EC91E22BEC938FBF13E001E037
:100CC000E091D501F091D60113861586148612861F
:100CD0001186108617821682158214821382109252
:100CE000D3011092D40162E370E080E090E00E94B2
:100CF000C200BE01665F7F4F8091D5019091D60101
:100D00000E94AC03882309F47AC067E0CE010A96FA
:100D10000E946F0199898913ECCF8091D3018F5F75
:100D20008093D3018A85883231F008F04EC080313B
:100D300011F08232F1F68091D4018F5F8093D4015B
:100D40008091CC01811128C08091D5019091D6016C
:100D50000E942C02BE01665F7F4F8091D501909169
:100D6000D6010E940D0240E064EB8091D501909184
:100D7000D6010E94D9018091D5019091D6010E949F
:100D80008601F82E8091D5019091D6010E942C0207
:100D9000F11002C00093CC018A85803109F1BE01B7
:100DA0006F5F7F4FCE010A960E946402882359F03C
:100DB0008D819A859B3311F487FD12C08F3391F09A
:100DC00058F48F31C1F080E00EC08B3309F4B3CFFB
:100DD000823409F08ECFAFCF8F3579F08F3799F706
:100DE0008CE001C08AE09091CF01981708F081CF84
:100DF0008093CF017ECF89E0F6CF8BE0F4CF809156
:100E0000D301811103C0115009F05ACF8091D5014F
:100E10009091D6010E942C0240E06CEC8091D501AB
:100E20009091D6010E94D9014091CC0164E4809157
:100E3000D5019091D6010E94D9018FB7F894C09046
:100E40002701D0902801E0902901F0902A018FBF5E
:100E50008091D001882339F1E091CF018091D101B7
:100E6000882309F4CAC08091CC018111C6C0809149
:100E7000D5019091D6010E9486018130A1F02FB753
:100E8000F8948091270190912801A0912901B091B7
:100E90002A012FBF8C199D09AE09BF098E3E9240D1
:100EA000A105B10520F38091D301882309F4ECC09A
:100EB000E091D501F091D60113861586148612862D
:100EC0001186108617821682158214821382BE0143
:100ED000665F7F4F8091D5019091D6010E94AC034F
:100EE000882309F4D1C067E0CE010A960E946F0101
:100EF00099898913C9C0BE016F5F7F4FCE010A96E1
:100F00000E946402882309F4BFC09A81C12CD12CAD
:100F1000760197FF06C0C12CD12CF8EFEF2EFF24ED
:100F2000FA944A8589814B3309F08EC02D8127FFC1
:100F30008BC080FDA9C0082F10E030E020E073E0F6
:100F4000000F111F221F331F7A95D1F7007E1770F3
:100F500022273327892F90E0B0E0A0E0EBE0880F54
:100F6000991FAA1FBB1FEA95D1F7802B912BA22BAB
:100F7000B32B8C019D010C291D292E293F290138F5
:100F800054EE15075FEF250735070CF47DC0C90146
:100F9000B8010E943D0920E030E040E05CE30E949F
:100FA000C5096B017C0120E030E04EEF52EC0E945D
:100FB0000709882309F468C020E030E048EC52E4D7
:100FC000C701B6010E94C5090E940C097093200157
:100FD00060931F0181E080931E0161E08DE00E941B
:100FE000F50000E010E001151105E9F30E9413037C
:100FF0008823C9F30E940000F6CFE9508EEE92E0FC
:10100000E33038F4F0E0EE0FFF1FEB5FFE4F80811E
:1010100091816C01F12CE12C8091CD01882329F084
:1010200060E08091CE010E94F500C701B6010E94E8
:10103000C2008091CD01882309F435CF61E0809111
:10104000CE010E94F5002FCF092F10E0102F0027AE
:10105000110F110F110F58E0859FB0011124062BBD
:10106000172B012E000C220B330B0C291D292E29C6
:101070003F294832A9F4803561F4953009F07FCFDB
:101080008F818C3009F07BCF82E080931E0160E07D
:10109000A5CF8F3F09F073CF973009F070CFF4CF11
:1010A000403109F06CCF6885662309F468CF70E0A1
:1010B0008F81AB01481B5109CA019695982F88274B
:1010C000979587950E94D908CB01770FAA0BBB0B88
:1010D00053E0000F111F221F331F5A95D1F70078DC
:1010E000277033270052110921093109800F911F00
:1010F000A21FB31F97018601082B192B2A2B3B2B0C
:101100003ECF1F920F920FB60F9211242F933F9351
:101110004F935F936F937F938F939F93AF93BF93FF
:10112000EF93FF938FE291E00E941D03FF91EF91F7
:10113000BF91AF919F918F917F916F915F914F91EF
:101140003F912F910F900FBE0F901F9018951F92F7
:101150000F920FB60F9211242F938F939F93EF93BB
:10116000FF93E0913F01F09140018081E0914501C2
:10117000F091460182FD1BC09081809148018F5FF4
:101180008F7320914901821741F0E0914801F0E00E
:10119000E15DFE4F958F80934801FF91EF919F9104
:1011A0008F912F910F900FBE0F901F9018958081F7
:1011B000F4CF97FB072E16F4009407D077FD09D0E3
:1011C0000E94ED0807FC05D03EF4909581959F4F55
:1011D0000895709561957F4F0895AA1BBB1B51E13F
:1011E00007C0AA1FBB1FA617B70710F0A61BB70B97
:1011F000881F991F5A95A9F780959095BC01CD013C
:101200000895EE0FFF1F0590F491E02D09940E94C0
:10121000780908F481E008950E94A40988F09F5796
:1012200098F0B92F9927B751B0F0E1F0660F771F0A
:10123000881F991F1AF0BA95C9F714C0B13091F000
:101240000E94BE09B1E008950C94BE09672F782F63
:101250008827B85F39F0B93FCCF3869577956795C5
:10126000B395D9F73EF490958095709561957F4F31
:101270008F4F9F4F0895E89409C097FB3EF49095D7
:101280008095709561957F4F8F4F9F4F9923A9F05F
:10129000F92F96E9BB279395F695879577956795EE
:1012A000B795F111F8CFFAF4BB0F11F460FF1BC032
:1012B0006F5F7F4F8F4F9F4F16C0882311F096E9C5
:1012C00011C0772321F09EE8872F762F05C0662373
:1012D00071F096E8862F70E060E02AF09A95660F2C
:1012E000771F881FDAF7880F9695879597F90895E5
:1012F000990F0008550FAA0BE0E8FEEF1616170627
:10130000E807F907C0F012161306E407F50798F08E
:10131000621B730B840B950B39F40A2661F0232BA7
:10132000242B252B21F408950A2609F4A140A69523
:101330008FEF811D811D089557FD9058440F551F53
:1013400059F05F3F71F04795880F97FB991F61F047
:101350009F3F79F087950895121613061406551FBE
:10136000F2CF4695F1DF08C0161617061806991F2A
:10137000F1CF86957105610508940895E894BB271F
:1013800066277727CB0197F908950E94D8090C9416
:10139000490A0E943B0A38F00E94420A20F0952335
:1013A00011F00C94320A0C94380A11240C94BF09E1
:1013B0000E949C0970F3959FC1F3950F50E0551F53
:1013C000629FF001729FBB27F00DB11D639FAA279A
:1013D000F00DB11DAA1F649F6627B00DA11D661FE9
:1013E000829F2227B00DA11D621F739FB00DA11D0A
:1013F000621F839FA00D611D221F749F3327A00DC4
:10140000611D231F849F600D211D822F762F6A2F5F
:1014100011249F5750409AF0F1F088234AF0EE0FC4
:10142000FF1FBB1F661F771F881F91505040A9F7F1
:101430009E3F510580F00C94320A0C94BF095F3F27
:10144000E4F3983ED4F3869577956795B795F7952D
:10145000E7959F5FC1F7FE2B880F911D96958795A5
:1014600097F9089597F99F6780E870E060E0089524
:101470009FEF80EC089500240A94161617061806AC
:101480000906089500240A94121613061406050688
:101490000895092E0394000C11F4882352F0BB0F19
:1014A00040F4BF2B11F460FF04C06F5F7F4F8F4F7C
:0814B0009F4F0895F894FFCF4F
:1014B800FF410141015E00BC007701000000003FD0
:0E14C800034201D6028C030703E502F902007D
:00000001FF
