:100000000C945E000C94FE040C94D7040C948600AF
:100010000C9486000C9486000C9486000C94890342
:100020000C9486000C9486000C9486000C94860038
:100030000C9486000C9486000C9486000C94860028
:100040000C9425050C9486000C942F040C94090440
:100050000C9486000C9486000C9486000C94860008
:100060000C9486000C948600000000080002010039
:100070000003040700000000000000000200000070
:1000800000250028002B0000000000240027002A83
:100090000004040404040404040202020202020331
:1000A000030303030301020408102040800102043B
:1000B000081020010204081020003F0311241FBE75
:1000C000CFEFD8E0DEBFCDBF11E0A0E0B1E0EEEEB3
:1000D000FAE002C005900D92AE33B107D9F722E0E5
:1000E000AEE3B1E001C01D92A130B207E1F710E02C
:1000F000CEE5D0E004C02197FE010E946F05CD350A
:10010000D107C9F70E9461040C9475050C94000096
:1001100090E0FC01EB55FF4F24918F569F4FFC015F
:100120008491882399F090E0880F991FFC01E9578A
:10013000FF4FA591B491FC01E358FF4F8591949135
:100140008FB7F894EC91E22BEC938FBF0895AF92A8
:10015000BF92CF92DF92EF92FF920F931F93CF93B4
:10016000DF936C017B018B01040F151FEB015E0116
:10017000AE18BF08C017D10759F06991D601ED91AB
:10018000FC910190F081E02DC6010995892B79F74A
:10019000C501DF91CF911F910F91FF90EF90DF90FC
:1001A000CF90BF90AF900895FC01538D448D252FC3
:1001B00030E0842F90E0821B930B541710F0CF9601
:1001C000089501970895FC01918D828D981761F033
:1001D000A28DAE0FBF2FB11D5D968C91928D9F5F4A
:1001E0009F73928F90E008958FEF9FEF0895FC0129
:1001F000918D828D981731F0828DE80FF11D858DDC
:1002000090E008958FEF9FEF0895FC01918D228D6E
:10021000892F90E0805C9F4F821B91098F739927F3
:1002200008958CE491E00E94050121E0892B09F4F6
:1002300020E0822F0895FC01A48DA80FB92FB11DD5
:10024000A35ABF4F2C91848D90E001968F7399270C
:10025000848FA689B7892C93A089B1898C918370EA
:1002600080648C93938D848D981306C00288F389E3
:10027000E02D80818F7D80830895EF92FF920F9310
:100280001F93CF93DF93EC0181E0888F9B8D8C8D42
:1002900098131AC0E889F989808185FF15C09FB736
:1002A000F894EE89FF896083E889F98980818370F9
:1002B000806480839FBF81E090E0DF91CF911F91A8
:1002C0000F91FF90EF900895F62E0B8D10E00F5FC9
:1002D0001F4F0F731127E02E8C8D8E110CC00FB69F
:1002E00007FCFACFE889F989808185FFF5CFCE0137
:1002F0000E941B01F1CFEB8DEC0FFD2FF11DE35A96
:10030000FF4FF0829FB7F8940B8FEA89FB898081B9
:100310008062CFCFCF93DF93EC01888D8823B9F033
:10032000AA89BB89E889F9898C9185FD03C0808100
:1003300086FD0DC00FB607FCF7CF8C9185FFF2CF7D
:10034000808185FFEDCFCE010E941B01E9CFDF91B7
:10035000CF910895089590E0FC01E859FF4F249152
:10036000FC01EB55FF4F3491FC01EF56FF4FE49138
:10037000EE23C9F0222339F0233001F1A8F4213013
:1003800019F1223029F1F0E0EE0FFF1FE358FF4F83
:10039000A591B4918FB7F894EC91611126C0309576
:1003A0003E233C938FBF08952730A9F02830C9F031
:1003B000243049F7809180008F7D03C080918000B8
:1003C0008F7780938000DFCF84B58F7784BDDBCFBC
:1003D00084B58F7DFBCF8091B0008F778093B00084
:1003E000D2CF8091B0008F7DF9CF3E2BDACF089528
:1003F00090E080E00895CF93DF93EC0160E08E8180
:100400000E94AB0161E08E810E94AB0160E08E81B1
:100410000E94AB018BE891E00197F1F7DF91CF915A
:100420000895CF92DF92EF92FF920F931F93CF9395
:10043000DF936C017C0187E0E80EF11CD0E0C0E0A6
:10044000062F10E0B8010C2E02C0759567950A942E
:10045000E2F76170F70181917F010E94AB01219663
:10046000C430D10579F7C601DF91CF911F910F916B
:10047000FF90EF90DF90CF900C94FB01CF92DF9232
:10048000EF92FF920F931F93CF93DF93EC01F62E21
:10049000642F8C810E94AB018D818F3F19F060E049
:1004A0000E94AB010F2D10E08F8584FF25C06E01E7
:1004B00087E0C80ED11CF12CE12CB8010E2C02C033
:1004C000759567950A94E2F76170F60181916F0165
:1004D0000E94AB01FFEFEF1AFF0A88E0E816F10473
:1004E00061F7CE01DF91CF911F910F91FF90EF90B7
:1004F000DF90CF900C94FB01B80184E0759567956F
:100500008A95E1F7CE010E9411026F2DCE01DF9195
:10051000CF911F910F91FF90EF90DF90CF900C94AF
:10052000110240E0682F89EE91E00C943E02CF93D7
:10053000DF93823029F49091F80198609093F8014C
:100540008093FC011092FD0180E48093FE0180E124
:100550008093FF0180E5809300028091ED010E946D
:1005600088008091EE018F3F11F00E9488008091F9
:10057000EF010E948800C9EED1E09E01295E314062
:100580008091F80184FD0AC084E090E0219628174C
:1005900039073CF48E810E948800EFCF88E090E01C
:1005A000F5CF8BE39DE00197F1F760E08091ED01DD
:1005B0000E94AB0160E08091EF010E94AB0180914D
:1005C000EE018F3F19F060E00E94AB018091F801CD
:1005D00084FD39C063E089EE91E00E941102CBE412
:1005E000D6E4CE010197F1F763E089EE91E00E9435
:1005F00011022197F1F763E089EE91E00E94110268
:1006000083E592E00197F1F762E089EE91E00E94C4
:1006100011028091F80180620E94910284E080932F
:10062000F9018CE00E94910281E00E9491028BE32B
:100630009FE10197F1F782E08093FA0186E0DF9174
:10064000CF910C94910280620E9491028BE496E417
:100650000197F1F78091F80180620E94910283E591
:1006600092E00197F1F78091F80180620E94910277
:10067000D0CF41E00E943E0281E090E00895ECE49A
:10068000F1E01382128288EE93E0A0E0B0E0848370
:100690009583A683B78383E291E09183808385EC81
:1006A00090E09587848784EC90E09787868780EC3C
:1006B00090E0918B808B81EC90E0938B828B82EC2D
:1006C00090E0958B848B86EC90E0978B868B118ED7
:1006D000128E138E148EE9EEF1E01382128285E3FE
:1006E00091E0918380838CE084838FEF85838BE01E
:1006F000868385E0878384E0808783E0818782E04A
:1007000082871386148615861686178681E00C94D8
:1007100097021F920F920FB60F9211242F933F93BF
:100720004F935F936F937F938F939F93AF93BF93F9
:10073000EF93FF938091480190914901A0914A0164
:10074000B0914B01892B8A2B8B2BC1F190914701E2
:10075000809100008927809300008091480190914A
:100760004901A0914A01B0914B01181619061A06C9
:100770001B069CF48091480190914901A0914A0187
:10078000B0914B010197A109B10980934801909361
:100790004901A0934A01B0934B01FF91EF91BF91A2
:1007A000AF919F918F917F916F915F914F913F9109
:1007B0002F910F900FBE0F901F90189580910401FC
:1007C000ECE7F0E0E4919FEF90930401E13051F009
:1007D00030F0E23069F060E00E94AB01DECF1092B1
:1007E0006E00F9CF90916F009D7F90936F00F3CFD3
:1007F000909170009D7F9093700091E09093B00075
:100800009091B100987F94609093B1001092B300E2
:10081000E2CF1F920F920FB60F9211242F933F93A6
:100820004F935F936F937F938F939F93AF93BF93F8
:10083000EF93FF938CE491E00E941B01FF91EF91F5
:10084000BF91AF919F918F917F916F915F914F91E8
:100850003F912F910F900FBE0F901F9018951F92F0
:100860000F920FB60F9211242F938F939F93EF93B4
:10087000FF93E0915C01F0915D018081E091620164
:10088000F091630182FD1BC09081809165018F5FB3
:100890008F7320916601821741F0E0916501F0E0CD
:1008A000E45BFE4F958F80936501FF91EF919F91DF
:1008B0008F912F910F900FBE0F901F9018958081F0
:1008C000F4CF789484B5826084BD84B5816084BDA2
:1008D00085B5826085BD85B5816085BD80916E00DE
:1008E000816080936E00109281008091810082600F
:1008F000809381008091810081608093810080914C
:1009000080008160809380008091B100846080933A
:10091000B1008091B00081608093B00080917A0036
:10092000846080937A0080917A00826080937A005C
:1009300080917A00816080937A0080917A0080684B
:1009400080937A001092C10082E00E9497024DE0ED
:1009500050E065E071E089EE91E00E94A700E0912F
:10096000FC01E23010F5E150F0E0E751FE4F8489E0
:1009700080680E9491024BE050E063E171E089EEF3
:1009800091E00E94A7008DE00E94880061E08DE068
:100990000E94AB01C0E0D0E02097F1F30E9411016A
:1009A0008823D1F30E940000F7CFE1E0DDCF1F9252
:1009B0000F920FB60F9211242F933F934F935F9393
:1009C0006F937F938F939F93AF93BF93EF93FF9317
:1009D000E0910201F09103010995FF91EF91BF9120
:1009E000AF919F918F917F916F915F914F913F91C7
:1009F0002F910F900FBE0F901F9018951F920F927E
:100A00000FB60F9211242F933F934F935F936F93E1
:100A10007F938F939F93AF93BF93EF93FF93E09157
:100A20000001F09101010995FF91EF91BF91AF9104
:100A30009F918F917F916F915F914F913F912F91F6
:100A40000F900FBE0F901F9018951F920F920FB628
:100A50000F9211242F933F938F939F93AF93BF9344
:100A60008091430190914401A0914501B0914601CC
:100A70003091420123E0230F2D3758F50196A11D37
:100A8000B11D209342018093430190934401A093B0
:100A90004501B093460180913E0190913F01A091A4
:100AA0004001B09141010196A11DB11D80933E010D
:100AB00090933F01A0934001B0934101BF91AF914A
:100AC0009F918F913F912F910F900FBE0F901F908C
:100AD000189526E8230F0296A11DB11DD2CFEE0F67
:0E0AE000FF1F0590F491E02D0994F894FFCFCC
:100AEE00AA01AA01FF48656C6C6F2C20576F726CBF
:100AFE0064210041726475696E6F204C434400009E
:100B0E000000003D01A700D4008A010501E300F7B3
:0E0B1E0000000000003903A700F801F70100F5
:00000001FF
