:100000000C945F000C9487000C9487000C9487007C
:100010000C9487000C9487000C9487000C94870044
:100020000C9487000C9487000C9487000C94870034
:100030000C9487000C9487000C9487000C94870024
:100040000C94EB030C9487000C9434050C94660517
:100050000C9487000C9487000C9487000C94870004
:100060000C942A0B0C948700000000080002010089
:100070000003040700000000000000000102040863
:100080001020408001020408102001020408102002
:10009000040404040404040402020202020203032E
:1000A0000303030300000000250028002B000000CC
:1000B0000000240027002A008A00960593081124D6
:1000C0001FBECFEFD8E0DEBFCDBF11E0A0E0B1E0B2
:1000D000E8EEF8E102C005900D92A632B107D9F71B
:1000E00022E0A6E2B1E001C01D92A73BB207E1F712
:1000F00010E0CFE5D0E004C02197FE010E946C0C17
:10010000CC35D107C9F70E9400070C94720C0C94EF
:100110000000089550E040E068E686E291E00C942B
:10012000F602CF92DF92EF92FF920F931F93CF933D
:10013000DF93CDB7DEB72C970FB6F894DEBF0FBEB6
:10014000CDBF61E08DE00E94CA0460E08DE00E94B6
:10015000060526E040E855E260E070E080E591E0C9
:100160000E949D068DEE91E00E94FB0786E291E0E1
:100170000E94AD0386E291E00E94E3038823B9F177
:10018000CE0101966C0102967C018E010B5F1F4F20
:100190009E01295F3F4FAE01475F5F4FBE01655F24
:1001A0007F4F86E291E00E9425036C8580E591E017
:1001B0000E9450066B8580E591E00E9450066A859A
:1001C00080E591E00E945006698580E591E00E94FB
:1001D0005006688580E591E00E9450066F8180E5B9
:1001E00091E00E94500661E08DE00E9406052C9689
:1001F0000FB6F894DEBF0FBECDBFDF91CF911F9138
:100200000F91FF90EF90DF90CF9008952F923F9243
:100210004F925F926F927F928F929F92AF92BF9216
:10022000CF92DF92EF92FF920F931F93CF93DF93C2
:1002300000D000D000D0CDB7DEB789836A83C42E4A
:100240003C832B83FE82ED820E9435044B015C01CE
:10025000ED80FE80EF2821F48DEE91E09E838D836A
:10026000F12CE12CD12C2C2C312C2801712C612C5F
:10027000E214F3040CF054C069818D819E810E94C8
:100280000D08AD81BE81ED91FC9111970190F08137
:10029000E02D6A81CD0109958D819E810E94900893
:1002A000A1014E195F094132510514F040E250E0BE
:1002B00069818D819E810E948D08AD81BE81ED9105
:1002C000FC9111970084F185E02DCD010995892BD2
:1002D000F9F00115110589F4AD81BE81ED91FC9114
:1002E00011970284F385E02DCD010995EB81FC8106
:1002F000ED0DF11D8083D394E0CF0E943504681981
:1003000079098A099B09641575058605970520F307
:100310008C2DB0E2BC1508F480E2E80EF11CA8CFE9
:100320000115110589F00E943504681979098A09B7
:100330009B0930E020E0601771078207930720F0E7
:10034000DC1410F4DD24DA948D2D26960FB6F89483
:10035000DEBF0FBECDBFDF91CF911F910F91FF90F8
:10036000EF90DF90CF90BF90AF909F908F907F9055
:100370006F905F904F903F902F900895EF92FF9273
:100380000F931F93780189019A0141E00E940601B1
:100390001F910F91FF90EF9008958F929F92AF92CF
:1003A000BF92CF92DF92EF92FF920F931F93CF9362
:1003B000DF931F92CDB7DEB7942E822E580197019E
:1003C0008601AE014F5F5F4F0E94BE018823F9F0A6
:1003D000292D2819330BA9014F5F5F4F21E030E031
:1003E00002C0220F331F8A94E2F721503109B9016C
:1003F000042E01C0660F0A94EAF72981262330E013
:1004000002C0359527954A95E2F7F50120830F90B4
:10041000DF91CF911F910F91FF90EF90DF90CF90E0
:10042000BF90AF909F908F900895CF92DF92EF9200
:10043000FF920F931F93CF93DF93C62EE42ED22EFD
:10044000F32EE801209711F4CDEED1E0682FCE0114
:100450000E940D08E881F9810190F081E02D6C2D5A
:10046000CE0109950D2D1F2DE00EF12EF11C0E155C
:100470001F0559F0F80161918F01E881F981019020
:10048000F081E02DCE010995F2CFCE010E949008B7
:1004900091E0811190E0892FDF91CF911F910F9111
:1004A000FF90EF90DF90CF9008950F931F93CF931D
:1004B000DF931F92CDB7DEB7498389019E012F5F7D
:1004C0003F4F41E00E9415020F90DF91CF911F91A5
:1004D0000F910895AF92BF92CF92DF92EF92FF9269
:1004E0000F931F93CF93DF931F92CDB7DEB7D82E14
:1004F000C62EA42EB22E7801209100013091010168
:10050000AE014F5F5F4F0E94BE0181E090E001C0ED
:10051000880FAA94EAF74981BB2099F0482B4983B8
:1005200097016C2D8D2D0E9455020F90DF91CF9178
:100530001F910F91FF90EF90DF90CF90BF90AF9001
:10054000089580954823EBCF9F92AF92BF92CF92B0
:10055000DF92EF92FF920F931F93CF93DF931F923F
:10056000CDB7DEB7C82EB62E942EA22ED02E209157
:100570000001309101018701AE014F5F5F4F0E9482
:10058000BE01882389F1892D8A19990BAC014F5F2F
:100590005F4F81E090E002C0880F991FAA94E2F7B4
:1005A0000197042E01C0880F0A94EAF72D2D01C08F
:1005B000220F4A95EAF7482F4095D9804D21822392
:1005C000482B498397016B2D8C2D0E9455020F906B
:1005D000DF91CF911F910F91FF90EF90DF90CF901F
:1005E000BF90AF909F90089580E0F1CFFC016083B1
:1005F0005283418388EF9AE2A0E0B0E0818B928B36
:10060000A38BB48B0895EF92FF920F93FC01E180CE
:10061000F280062F22E044E06BE180810E94A40278
:100620000F91FF90EF900895EF92FF920F93FC01CE
:10063000E180F280062F22E044E06CE180810E949C
:10064000A4020F91FF90EF9008952F923F924F9246
:100650005F926F927F928F929F92AF92BF92CF9252
:10066000DF92EF92FF920F931F93CF93DF93EC01F2
:100670003B014A01590128011701E980FA800091E4
:100680000001109101019C012D5F3F4F4EE06BE393
:1006900088810E9406018B819C8198278927982751
:1006A000F301918380838D819E81982789279827E4
:1006B000F401918380838F819885982789279827D3
:1006C000F501918380838B859C85982789279827BE
:1006D000F201918380838D859E85982789279827AD
:1006E000F101918380838F8598899827892798279E
:1006F000F60191838083DF91CF911F910F91FF903D
:10070000EF90DF90CF90BF90AF909F908F907F90B1
:100710006F905F904F903F902F9008950F931F938D
:10072000262FFC010181128146E06BE680810E9448
:100730006A021F910F910895EF92FF920F93FC01AF
:10074000E180F280062F23E042E06BE680810E9488
:10075000A4020F91FF90EF900895CF93DF93EC01E7
:1007600061E00E949C0360E0CE010E94030360E010
:10077000CE010E94140360E0CE01DF91CF910C9472
:100780008E03CF92DF92EF92FF920F931F93CF933E
:10079000DF93EC01C980DA80E0900001F090010164
:1007A0008C010D5F1F4F26E046E065E788810E94BF
:1007B000CD018B81DF91CF911F910F91FF90EF9031
:1007C000DF90CF9008950E94C10391E0843309F037
:1007D00090E0892F08951F920F920FB60F92112467
:1007E0002F933F938F939F93AF93BF938091480133
:1007F00090914901A0914A01B0914B01309147017C
:1008000023E0230F2D3758F50196A11DB11D20932C
:1008100047018093480190934901A0934A01B09306
:100820004B0180914C0190914D01A0914E01B091EE
:100830004F010196A11DB11D80934C0190934D0174
:10084000A0934E01B0934F01BF91AF919F918F91B3
:100850003F912F910F900FBE0F901F90189526E893
:10086000230F0296A11DB11DD2CF2FB7F89460912E
:1008700048017091490180914A0190914B012FBF2D
:1008800008953FB7F89480914C0190914D01A0914B
:100890004E01B0914F0126B5A89B05C02F3F19F01E
:1008A0000196A11DB11D3FBFBA2FA92F982F8827F0
:1008B000BC01CD01620F711D811D911D42E0660FCB
:1008C000771F881F991F4A95D1F70895789484B5AA
:1008D000826084BD84B5816084BD85B5826085BD3C
:1008E00085B5816085BDEEE6F0E080818160808322
:1008F000E1E8F0E010828081826080838081816005
:100900008083E0E8F0E0808181608083E1EBF0E0CB
:10091000808184608083E0EBF0E08081816080836F
:10092000EAE7F0E080818460808380818260808358
:100930008081816080838081806880831092C10083
:100940000895833081F028F4813099F08230A9F045
:1009500008958730A9F08830C9F08430B1F48091CF
:1009600080008F7D03C0809180008F77809380000E
:10097000089584B58F7784BD089584B58F7DFBCFAE
:100980008091B0008F778093B00008958091B0007F
:100990008F7DF9CFCF93DF9390E0FC01E458FF4FB8
:1009A000249180579F4FFC0184918823C9F090E0E7
:1009B000880F991FFC01E255FF4FA591B491FC01EE
:1009C000EC55FF4FC591D49161110DC09FB7F894BC
:1009D0008C91209582238C938881282328839FBF24
:1009E000DF91CF910895623051F49FB7F8943C9114
:1009F000822F809583238C93E8812E2BEFCF8FB7A6
:100A0000F894EC912E2B2C938FBFEACF1F93CF93AA
:100A1000DF93282F30E0F901E859FF4F8491F90165
:100A2000E458FF4FD491F901E057FF4FC491CC2314
:100A3000A9F0162F81110E94A104EC2FF0E0EE0F17
:100A4000FF1FEC55FF4FA591B4918FB7F894EC912F
:100A5000111108C0D095DE23DC938FBFDF91CF91B9
:100A60001F910895DE2BF8CF1F920F920FB60F92B1
:100A700011242F938F939F93EF93FF93E091600145
:100A8000F09161018081E0916601F091670182FD42
:100A90001BC09081809169018F5F8F7320916A01E3
:100AA000821741F0E0916901F0E0E05BFE4F958F25
:100AB00080936901FF91EF919F918F912F910F90FA
:100AC0000FBE0F901F9018958081F4CF1F920F9248
:100AD0000FB60F9211242F933F934F935F936F9311
:100AE0007F938F939F93AF93BF93EF93FF9380E593
:100AF00091E00E940E06FF91EF91BF91AF919F91FF
:100B00008F917F916F915F914F913F912F910F90B6
:100B10000FBE0F901F90189580E591E00E94C305CD
:100B200021E0892B09F420E0822F0895E0E5F1E02F
:100B30001382128288EE93E0A0E0B0E08483958374
:100B4000A683B78386E091E09183808385EC90E073
:100B50009587848784EC90E09787868780EC90E087
:100B6000918B808B81EC90E0938B828B82EC90E078
:100B7000958B848B86EC90E0978B868B118E128EF2
:100B8000138E148E0895FC01918D228D892F90E093
:100B9000805C9F4F821B91098F7399270895FC01F8
:100BA000918D828D981731F0828DE80FF11D858D22
:100BB00090E008958FEF9FEF0895FC01918D828D55
:100BC000981761F0A28DAE0FBF2FB11D5D968C916D
:100BD000928D9F5F9F73928F90E008958FEF9FEFAC
:100BE0000895FC01538D448D252F30E0842F90E033
:100BF000821B930B541710F0CF9608950197089518
:100C00008CE895E0892B49F080E090E0892B29F071
:100C10000E948C0581110C9400000895FC01A48DA4
:100C2000A80FB92FB11DA35ABF4F2C91848D90E00E
:100C300001968F739927848FA689B7892C93A089F1
:100C4000B1898C91837080648C93938D848D98137B
:100C500006C00288F389E02D80818F7D808308950E
:100C6000CF93DF93EC01888D8823B9F0AA89BB89E3
:100C7000E889F9898C9185FD03C0808186FD0DC0CE
:100C80000FB607FCF7CF8C9185FFF2CF808185FFEF
:100C9000EDCFCE010E940E06E9CFDF91CF910895EE
:100CA000EF92FF920F931F93CF93DF93EC0181E0BC
:100CB000888F9B8D8C8D98131AC0E889F989808163
:100CC00085FF15C09FB7F894EE89FF896083E88996
:100CD000F98980818370806480839FBF81E090E088
:100CE000DF91CF911F910F91FF90EF900895F62E15
:100CF0000B8D10E00F5F1F4F0F731127E02E8C8DAF
:100D00008E110CC00FB607FCFACFE889F9898081F3
:100D100085FFF5CFCE010E940E06F1CFEB8DEC0FD3
:100D2000FD2FF11DE35AFF4FF0829FB7F8940B8F10
:100D3000EA89FB8980818062CFCFCF92DF92EF92E8
:100D4000FF921F93CF93DF93EC016A017B01122F77
:100D5000E889F98982E08083C11481EED806E10434
:100D6000F104A1F060E079E08DE390E0A701960145
:100D70000E944A0C21503109410951095695479565
:100D800037952795211580E1380798F0E889F9898A
:100D9000108260E874E88EE190E0A70196010E945D
:100DA0004A0C21503109410951095695479537950B
:100DB0002795EC85FD853083EE85FF852083188E91
:100DC000EC89FD891083EA89FB89808180618083B9
:100DD000EA89FB89808188608083EA89FB89808138
:100DE00080688083EA89FB8980818F7D8083DF91A1
:100DF000CF911F91FF90EF90DF90CF9008950895CD
:100E00000E9466040E94FF060E949100C0E0D6E0A6
:100E10000E9489002097E1F30E940006F9CF90E03C
:100E200080E00895AF92BF92CF92DF92EF92FF924F
:100E30000F931F93CF93DF936C017B018B01040F02
:100E4000151FEB015E01AE18BF08C017D10759F09E
:100E50006991D601ED91FC910190F081E02DC601E0
:100E60000995892B79F7C501DF91CF911F910F91DA
:100E7000FF90EF90DF90CF90BF90AF90089580915A
:100E8000210290912202891B990B089590912202D0
:100E9000809121022FEF3FEF981748F4E92FF0E0FF
:100EA000ED5DFD4F208130E09F5F90932202C901EC
:100EB0000895E091220280912102E81730F4F0E0D9
:100EC000ED5DFD4F808190E008958FEF9FEF0895D5
:100ED0000895CF93DF93EC01E091F901F091FA01CD
:100EE0003097F1F090912202809121029817C0F082
:100EF00090E0292F30E02617370754F4DE01A20FC7
:100F0000B31F4C912D5D3D4FD9014C939F5FF1CFA5
:100F10001092220260932102CB01DF91CF910994BC
:100F2000DF91CF910895E091FB01F091FC013097A2
:100F300029F01092FF011092FE0109940895CF93B9
:100F4000DF931F92CDB7DEB769832091FD01222385
:100F5000F9F02091FE01203258F021E030E0FC0150
:100F60003383228390E080E00F90DF91CF9108954A
:100F70008091FF01E82FF0E0E050FE4F99819083CF
:100F80008F5F8093FF018093FE0181E090E0ECCFC2
:100F900061E0CE0101960E94CF08F7CFCF92DF9299
:100FA000EF92FF920F931F93CF93DF937C01CB01BE
:100FB0008A012091FD01222389F0EB016B01C40E0F
:100FC000D51ECC15DD0569F06991D701ED91FC9135
:100FD0000190F081E02DC7010995F3CF642F0E94A5
:100FE000CF08C801DF91CF911F910F91FF90EF9033
:100FF000DF90CF9008951092220210922102109259
:10100000FF011092FE010E94A40883E997E00E946C
:10101000FB0889E697E00C94F60881E08093FD01D7
:10102000609320021092FF011092FE0108950F9329
:10103000062F21E04091FE0160E072E080912002E5
:101040000E94000A1092FF011092FE011092FD0111
:101050000F9108954F925F926F927F92AF92BF92DD
:10106000CF92EF92FF920F931F93CF93DF935C0188
:10107000F62ED42F28013901EE2019F10E940D0817
:10108000CE2DC43008F0C3E0C150B8F028E0C29FB4
:10109000C0011124A301920104C0569547953795CC
:1010A00027958A95D2F7B901D501ED91FC91019070
:1010B000F081E02DC5010995E7CF60E0C5010E94F0
:1010C00017084D2FD13208F040E22C2D63E272E078
:1010D0008F2D0E941C091092220280932102DF9121
:1010E000CF911F910F91FF90EF90CF90BF90AF9055
:1010F0007F906F905F904F900895CF92EF920F93F3
:101100001F93C22EE12C00E010E098010E942A08F3
:101110001F910F91EF90CF90089521E00C947D08DE
:1011200061E00C941708EDEEF1E01382128288EE74
:1011300093E0A0E0B0E084839583A683B78388E141
:1011400091E09183808308951092B60281E08093AC
:10115000B4021092B30261E082E10E94060561E0F0
:1011600083E10E940605E9EBF0E080818E7F8083B9
:1011700080818D7F808388E48093B80085E48093AC
:10118000BC000895ECEBF0E080818A7B808360E016
:1011900082E10E94060560E083E10C94060520913F
:1011A0006502260F3327331F21323105ECF42091DD
:1011B000B602FC0190E080E0243069F082E00895FE
:1011C000A09165022191AC0149595D4FA40FB52F43
:1011D000B11D2C930196861798F380916502680FD4
:1011E0006093650280E0089581E008959093AA02DB
:1011F0008093A90208959093AC028093AB02089566
:1012000085EC8093BC001092B6020895CF93DF93D3
:1012100091E09093AE02882361F0C091B800D09124
:10122000BA000E94C2080E94A408D093BA00C093DA
:10123000B800DF91CF9108954F925F926F927F92A5
:101240008F929F92AF92BF92CF92DF92EF92FF92D6
:101250000F931F93CF93DF93D82F162F072FC42FF1
:10126000B22E413208F0A3C00E9441046B017C0100
:101270008091B602811176C081E08093B602B0926F
:10128000B4029FEF90934302109288029C0F9093B8
:1012900087028093B5028091B502DD0FD82BD093E1
:1012A000B5028091B302813009F083C01092B3027D
:1012B0000E9441046B017C018091B5028093BB00C8
:1012C0008091AF029091B002A091B102B091B202B0
:1012D000892B8A2B8B2BA1F00E9441048090AF02B6
:1012E0009090B002A090B102B090B2026C197D094A
:1012F0008E099F0986169706A806B90608F453C0FA
:101300008091BC0083FDD8CF85EC8093BC000E9407
:1013100041046B017C018091B602813009F44BC01D
:10132000809188028C1710F4C0918802A9E8B2E07D
:10133000912FE12FF02F8E2F891B8C1708F45DC0A1
:101340008C2FDF91CF911F910F91FF90EF90DF9045
:10135000CF90BF90AF909F908F907F906F905F9055
:101360004F9008958091AF029091B002A091B10288
:10137000B091B202892B8A2B8B2B09F479CF0E9472
:1013800041044090AF025090B0026090B102709062
:10139000B2026C197D098E099F0946165706680628
:1013A000790608F065CF8091AD020E940609C0E081
:1013B000C7CF85EEAACF8091AF029091B002A091E5
:1013C000B102B091B202892B8A2B8B2B09F4A3CFE7
:1013D0000E9441048090AF029090B002A090B102B0
:1013E000B090B2026C197D098E099F098616970686
:1013F000A806B90608F08FCFD6CF8D9181939BCFE9
:101400004F925F926F927F928F929F92AF92BF9214
:10141000EF92FF920F931F93CF93DF93413208F027
:10142000D9C0F22ED42FE72E162FC82F0E944104C8
:101430004B015C018091B602811170C082E0809303
:10144000B6020093B4028FEF809343021092880299
:10145000D0938702912FA9E8B2E0E12FFE2D8E2FC5
:10146000891B8D1708F48FC01092B5028091B502C8
:10147000CC0FC82BC093B5028091B302813009F024
:1014800085C01092B3020E9441044B015C0180911F
:10149000B5028093BB008091AF029091B002A09101
:1014A000B102B091B202892B8A2B8B2BA1F00E9442
:1014B00041040091AF021091B0022091B10230912D
:1014C000B202681979098A099B09061717072807C4
:1014D000390708F444C08091BC0083FDD8CF85EC67
:1014E0008093BC000E9441044B015C01FF2029F065
:1014F0008091B602823009F44BC0809143028F3F45
:1015000009F46AC080914302803209F467C0809177
:101510004302803309F464C084E026C08091AF02A6
:101520009091B002A091B102B091B202892B8A2BA6
:101530008B2B09F47FCF0E9441044090AF02509062
:10154000B0026090B1027090B202681979098A09FC
:101550009B09461657066806790608F06BCF8091FE
:10156000AD020E94060985E0DF91CF911F910F9196
:10157000FF90EF90BF90AF909F908F907F906F9073
:101580005F904F90089581918D9369CF85EEA8CF9C
:101590008091AF029091B002A091B102B091B202DD
:1015A000892B8A2B8B2B09F4A1CF0E944104009137
:1015B000AF021091B0022091B1023091B2026819CD
:1015C00079098A099B09061717072807390708F0C0
:1015D0008DCFC5CF81E0C8CF80E0C6CF82E0C4CF39
:1015E00083E0C2CF85ED8093BC008091AF029091E3
:1015F000B002A091B102B091B2020796A11DB11D37
:1016000023E0B695A795979587952A95D1F72091D0
:10161000BC0024FD03C01092B60208954091AF02B1
:101620005091B0026091B1027091B202452B462BED
:10163000472B69F30097A105B10541F02AE22A95ED
:10164000F1F700C00197A109B109E1CF8091AD0286
:101650000C9406091F920F920FB60F9211242F932C
:101660003F934F935F936F937F938F939F93AF932A
:10167000BF93EF93FF938091B900887F803609F480
:101680004CC008F03FC0883209F4A8C018F580317A
:1016900009F49CC0B8F4882309F4F9C0883009F42F
:1016A00095C0FF91EF91BF91AF919F918F917F91E5
:1016B0006F915F914F913F912F910F900FBE0F90BF
:1016C0001F901895883109F489C0803251F78093B2
:1016D000430215C0803409F49EC048F48033B9F346
:1016E0008833F9F6809343020E940009DACF8035EF
:1016F00009F485C0883509F496C0883491F60E94B3
:10170000F20ACFCF883909F48CC038F5883729F030
:1017100050F4883611F0803721F683E08093B602CA
:101720001092440257C0883809F47BC0803919F000
:10173000803809F0B6CF80914402803208F071C041
:10174000E091440281E08E0F809344028091BB00BF
:10175000F0E0EB5BFD4F80833DC0803B39F0E0F46F
:10176000803A09F479C0883A09F09BCF84E08093ED
:10177000B6021092660210926502E091AB02F091FF
:10178000AC0209958091650281110FC081E08093C0
:1017900065021092670209C0803C09F476C0883C5B
:1017A00009F473C0883B09F07CCFE091660281E0C8
:1017B0008E0F80936602F0E0E959FD4F808180939F
:1017C000BB00909166028091650229C08091B502AC
:1017D0008093BB0085EC8093BC0063CF909188021E
:1017E00080918702981758F5E091880281E08E0F6A
:1017F00080938802F0E0E757FD4F8081E9CFE091C8
:10180000880281E08E0F809388028091BB00F0E017
:10181000E757FD4F80839091880280918702981747
:10182000C8F285E8D8CFE091880281E08E0F8093DE
:1018300088028091BB00F0E0E757FD4F80838091E4
:10184000B40281115CCF81E08093B30284EA80937B
:10185000BC001092B60225CF0E940009809144027C
:10186000803230F4E0914402F0E0EB5BFD4F1082F7
:101870006091440270E0E091A902F091AA0285E42F
:1018800092E00995109244020CCF85ECE0CF1092C3
:10189000430235CFA1E21A2EAA1BBB1BFD010DC0CE
:1018A000AA1FBB1FEE1FFF1FA217B307E407F50710
:1018B00020F0A21BB30BE40BF50B661F771F881FEC
:1018C000991F1A9469F760957095809590959B0182
:1018D000AC01BD01CF010895EE0FFF1F0590F491FB
:0818E000E02D0994F894FFCFFC
:1018E800E8030000000050061207F1053006C305A2
:1018F800DD05CF05000000009F07CE070F0768072A
:061908003F0746075907E6
:00000001FF
