:100000000C9442050C946A050C946A050C946A05DC
:100010000C946A050C946A050C946A050C946A05A4
:100020000C946A050C946A050C946A050C946A0594
:100030000C946A050C946A050C946A050C946A0584
:100040000C94C1130C946A050C946A050C946A050F
:100050000C946A050C946A050C946A050C946A0564
:100060000C9433180C946A052200FF210001030749
:100070000F1F3F7F0080C0E0F0F8FCFEDB40A4A62D
:100080002EAF2000A1C8D300408DAED580A80000BF
:10009000600000000000000000000000000000E020
:1000A0000000000000000000000000000001E0006F
:1000B00000000000000000000000000001F000004F
:1000C000000000000000000000000003F00000003D
:1000D0000000000000000000000007F00000000029
:1000E00000000000000000000007F8000000000011
:1000F00000000000000000000FF800000003C00036
:100100007E000001E0007F0FF800000003C000FE49
:10011000000001E000FFEFF800000003C000FE0057
:100120000001E000FFFFF800000003C000F0000045
:10013000000F007FFE7FC0000003C000F000000041
:100140000F003FFE7FF83FF1FBCFFCFEF3BC3DEF1D
:10015000E01FFE7FFF7FFBFFDFFEFEFFBC3DEFE009
:100160001FC6FFFF7FFBFFDFFEFEFFBC3DEFE00F82
:10017000E3C7FE787BC3DE1EF0FFBC3DEF0007FF48
:1001800087FC787BC3DE1EF0F83C3DEF0001FFFFEB
:10019000F0007BC3C01EF0F03C3DEF0001F37FE0B8
:1001A0003FFBC3CFFEF0F03C3DEF0003E33F807F19
:1001B000FBC3DFFEF0F03C3DEF0007E73C00787B3F
:1001C000C3DE1EF0F03C3DEF0007FFBE00787BC3AE
:1001D000DE1EF0F03C3DEF0007FFFE00787BC3DE43
:1001E0001EF0F03C3DEF000FFFFE007FFBFFDFFE47
:1001F000F0F03FFDEFE00FFFFF007FFBFFDFFEF0C1
:10020000F03FFDEFE00FF9FF003E79F9CF9EF0F0EF
:100210001F3DE7E01FF1FF000000000000000000AC
:100220000000001F80FF007FFFFFFFFFFFFFFFFFB9
:10023000FFE01C007F007FFFFFFFFEB46D888D187C
:10024000E000001F007FFFFFFFFE95AD7DB577E06A
:1002500000000F007FFFFFFFFEA5AD9D8D19E000A0
:100260000006007FFFFFFFFEB5ADEDB57EE00000AC
:10027000000000018000000000000000000003807A
:1002800000000000000000000007C00000000000A7
:100290000000000007C00000000000000000000F88
:1002A000C00000000000000000001FE0000000008F
:1002B00000000000001FE00000000000000000003F
:1002C0003FE00000000000000000003FF0000000E0
:1002D0000000000000007FF0000000000000001F90
:1002E000F87FF0000000000000003FFE7FF00000FB
:1002F00000000000003FFF7FF00000000000000051
:100300001FFFFBE0000000000000000FFFF9FFC02E
:100310000000000000000FFFF9FFF80000000000DF
:100320000007FFF1FFFF00000000000003FC73FF67
:10033000FF80000000000001FE3FFFFF8000000082
:10034000000000FF1E0FFF000000000000007FFE05
:100350001FFC000000000000003FFFFFF80000004D
:10036000000000000FDFFFE0000000000000001FA1
:1003700019FFC0000000000000003F3CFF0000002B
:1003800000000000007E7CF800000000000000007B
:100390007FFE7C0000000000000000FFFFFC00006A
:1003A000000000000000FFFFFE0000000000000051
:1003B00000FFFFFE0000000000000001FFEFFE0054
:1003C00000000000000001FFCFFE00000000000060
:1003D0000003FF07FE0000000000000003FC07FE12
:1003E0000000000000000003F003FE000000000019
:1003F0000000018000FE000000000000000000007E
:100400007E000000000000000000003E0000000030
:100410000000000000000C00000000000007800049
:10042000FC000003C0000000078001FC000003C0C6
:10043000000000078001FC000003C00000000780EE
:1004400001E00000001E000000078001E000000045
:100450001E007FE3F79FF9FDE7787BDFC0FFF7FF22
:10046000BFFDFDFF787BDFC0FFF7FFBFFDFDFF781D
:100470007BDFC0F0F787BC3DE1FF787BDE00F0F763
:1004800087BC3DE1F0787BDE0000F787803DE1E04E
:10049000787BDE007FF7879FFDE1E0787BDE00FF61
:1004A000F787BFFDE1E0787BDE00F0F787BC3DE138
:1004B000E0787BDE00F0F787BC3DE1E0787BDE0092
:1004C000F0F787BC3DE1E0787BDE00FFF7FFBFFD82
:1004D000E1E07FFBDFC0FFF7FFBFFDE1E07FFBDF77
:1004E000C07CF3F39F3DE1E03E7BCFC00000000005
:1004F00000000000000000FFFFFFFFFFFFFFFFFF05
:10050000FFC0FFFFFFFFFD68DB111A31C0FFFFFFD7
:10051000FFFD2B5AFB6AEFC0FFFFFFFFFD4B5B3B6C
:100520001A33C0FFFFFFFFFD6B5BDB6AFDC00000FD
:100530000000003E5B4F5B3E3E6B4F6B3E1C3E7CC3
:100540003E1C183C7E3C181C577D571C1C5E7F5E71
:100550001C00183C1800FFE7C3E7FF001824180030
:10056000FFE7DBE7FF30483A060E262979292640C7
:100570007F050507407F05253F5A3CE73C5A7F3EF3
:100580001C1C08081C1C3E7F14227F22145F5F0085
:100590005F5F06097F017F006689956A6060606021
:1005A0006094A2FFA29408047E040810207E20100C
:1005B00008082A1C08081C2A08081E101010100C15
:1005C0001E0C1E0C30383E3830060E3E0E06000063
:1005D00000000000005F00000007000700147F1407
:1005E0007F14242A7F2A1223130864623649562076
:1005F000500008070300001C2241000041221C009B
:100600002A1C7F1C2A08083E080800807030000859
:1006100008080808000060600020100804023E512D
:1006200049453E00427F40007249494946214149BF
:100630004D331814127F1027454545393C4A494926
:100640003141211109073649494936464949291E90
:10065000000014000000403400000008142241147F
:1006600014141414004122140802015909063E41D1
:100670005D594E7C1211127C7F494949363E4141F9
:1006800041227F4141413E7F494949417F09090952
:10069000013E414151737F0808087F00417F4100BE
:1006A0002040413F017F081422417F404040407F6D
:1006B000021C027F7F0408107F3E4141413E7F09BA
:1006C0000909063E4151215E7F09192946264949FB
:1006D000493203017F01033F4040403F1F2040203B
:1006E0001F3F4038403F6314081463030478040339
:1006F0006159494D43007F414141020408102000E7
:100700004141417F04020102044040404040000357
:1007100007080020545478407F2844443838444423
:100720004428384444287F385454541800087E091B
:100730000218A4A49C787F0804047800447D40003B
:100740002040403D007F1028440000417F40007C55
:10075000047804787C080404783844444438FC184D
:1007600024241818242418FC7C0804040848545431
:10077000542404043F44243C4040207C1C2040205E
:100780001C3C4030403C44281028444C9090907CC5
:100790004464544C440008364100000077000000D7
:1007A0004136080002010204023C2623263C1EA119
:1007B000A161123A4040207A385454555921555578
:1007C0007941225454784221555478402054557927
:1007D000400C1E52721239555555593954545459BA
:1007E00039555454580000457C410002457D420073
:1007F00001457C407D1211127DF0282528F07C54A3
:100800005545002054547C547C0A097F493249499B
:1008100049323A4444443A324A4848303A41412104
:100820007A3A42402078009DA0A07D3D4242423D60
:100830003D4040403D3C24FF2424487E4943662BF4
:100840002FFC2F2BFF0929F620C0887E0903205496
:100850005479410000447D413048484A3238404094
:10086000227A007A0A0A727D0D19317D2629292FF4
:1008700028262929292630484D402038080808080C
:1008800008080808382F10C8ACBA2F102834FA000E
:10089000007B000008142A142222142A1408550090
:1008A000550055AA55AA55AAFF55FF55FF0000004F
:1008B000FF00101010FF00141414FF001010FF00B0
:1008C000FF1010F010F0141414FC001414F700FFC3
:1008D0000000FF00FF1414F404FC141417101F1080
:1008E000101F101F1414141F00101010F00000002F
:1008F000001F101010101F10101010F0100000003A
:10090000FF101010101010101010FF10000000FF4A
:10091000140000FF00FF00001F10170000FC04F48B
:1009200014141710171414F404F40000FF00F71443
:10093000141414141414F700F714141417141010CA
:100940001F101F141414F4141010F010F000001FE6
:10095000101F0000001F14000000FC140000F01025
:10096000F01010FF10FF141414FF141010101F00CB
:10097000000000F010FFFFFFFFFFF0F0F0F0F0FFCD
:10098000FFFF0000000000FFFF0F0F0F0F0F3844A4
:10099000443844FC4A4A4A347E02020606027E0279
:1009A0007E0263554941633844443C04407E201E26
:1009B0002006027E020299A5E7A5991C2A492A1C55
:1009C0004C7201724C304A4D4D303048784830BC42
:1009D000625A463D3E494949007E0101017E2A2A6C
:1009E0002A2A2A44445F444440514A444040444AED
:1009F00051400000FF0103E080FF000008086B6B1E
:100A0000083612362436060F090F060000181800A3
:100A100000001010003040FF0101001F01011E0006
:100A2000191D1712003C3C3C3C0000000000000077
:100A3000000800020100000304070000000000009D
:100A40000000010204081020408001020408102068
:100A50000102040810200404040404040404020233
:100A60000202020203030303030300000000250047
:100A700028002B0000000000240027002A006D053C
:100A80006C16970511241FBECFEFD8E0DEBFCDBF97
:100A900011E0A0E0B1E0E2E7F5E302C005900D92BD
:100AA000A037B107D9F722E0A0E7B1E001C01D925D
:100AB000AB38B207E1F715E0C1E4D5E004C02197F7
:100AC000FE010E947519CF33D107C9F70E943C156A
:100AD0000C94AC1A0C94000008958F929F92AF92E0
:100AE000BF92CF92DF92EF92FF920F9380EA882E0F
:100AF00086E8982EAA24A394B12C90E8C92E9AE1F6
:100B0000D92E96E0E92EF12C0FEF2DEB31E040E4E9
:100B100060E880E791E00E94FC060F91FF90EF9063
:100B2000DF90CF90BF90AF909F908F90089580E717
:100B300091E00C9447070F93CF93DF9361E08DE032
:100B40000E94CD1460E08DE00E9409158DEB91E0CC
:100B50000E94341601E021E04CE362E080E791E07E
:100B60000E94B408882309F45EC080E791E00E94E7
:100B70009608D0E0C0E021E030E050E040E0BE0167
:100B800080E791E00E941B0621E030E041E050E068
:100B9000BE0180E791E00E941B0621E030E042E0C8
:100BA00050E0BE0180E791E00E941B0621E030E0AA
:100BB00043E050E0BE0180E791E00E941B0621E087
:100BC00030E044E050E0BE0180E791E00E941B0667
:100BD00021E030E045E050E0BE0180E791E00E9476
:100BE0001B0621E030E046E050E0BE0180E791E0E6
:100BF0000E941B0621E030E047E050E0BE0180E7A4
:100C000091E00E941B062196C830D10509F0B3CFB0
:100C100080E791E00E94370C61E08DE0DF91CF9199
:100C20000F910C940915DF91CF910F91089590E0E9
:100C300080E008950895FC0177FD64C0808591856A
:100C4000681779070CF05EC057FD5CC082859385FC
:100C5000481759070CF056C086898230B1F08330AE
:100C600029F1813041F484819581841B950BAB017E
:100C7000BC01615071092130310509F108F443C00C
:100C80002230310509F463C0089584819581DC0127
:100C9000A61BB70BBD016150710986819781DC01EC
:100CA000A41BB50BAD0141505109E5CF8681978159
:100CB000861B970BBA01AC0141505109DCCFCA0128
:100CC00057FD0796A3E095958795AA95E1F7A4812E
:100CD000B5818A9F90018B9F300D9A9F300D112412
:100CE000620F731F078CF0A1E02DE60FF71F47700E
:100CF000552721E030E001C0220F4A95EAF78081B4
:100D0000822B80830895CA0157FD079633E095959D
:100D100087953A95E1F7A481B5818A9F90018B9FD1
:100D2000300D9A9F300D1124620F731F078CF0A1B4
:100D3000E02DE60FF71F4770552781E090E001C0D6
:100D4000880F4A95EAF7809590818923DACFCA0106
:100D500057FD079623E0959587952A95E1F7A4819D
:100D6000B5818A9F90018B9F300D9A9F300D112481
:100D7000620F731F078CF0A1E02DE60FF71F47707D
:100D8000552721E030E001C0220F4A95EAF7808123
:100D90008227B7CF2091B201222381F03FB7F89488
:100DA0002091B201213069F42DB32093B0014DB3ED
:100DB0002091B101209524232DBB3FBF8CBD9DBD4B
:100DC00008953093B001FACF8EBD00000DB407FE38
:100DD000FDCF8EB508958091B201882361F09FB751
:100DE000F8942091B2018091B001213019F48DBBAB
:100DF0009FBF08958FBF08954F925F926F927F9229
:100E00008F929F92AF92BF92CF92DF92EF92FF921A
:100E10000F93CF93DF93CDB7DEB73C01290150E0AC
:100E200070E00E94DA0F8AE091E0F3019183808301
:100E3000148E138E4114510421F48DEB482E81E061
:100E4000582EF301568E458E10A2178E8FEF84A375
:100E500085A386A387A300A7C5AAD6AAE7AAF0AE52
:100E600081AE92AEA3AEB4AE80E586AF17AEDF9191
:100E7000CF910F91FF90EF90DF90CF90BF90AF9008
:100E80009F908F907F906F905F904F9008952AE091
:100E900031E0FC0131832083878D90A1009711F010
:100EA0000C94171A08951F93CF93DF93EC018D8D47
:100EB0009E8D009711F1162F69A1062E000C770B5D
:100EC0000E9454168D8D9E8DDC01ED91FC91019058
:100ED000F081E02D60E009958D8D9E8DDC01ED9116
:100EE000FC910190F081E02D612F09958D8D9E8DF3
:100EF000DF91CF911F910C946916ADA5BEA59C9171
:100F00008BA9809589238C938B8D9C8D892B31F0B7
:100F1000862FDF91CF911F910C94E40628E030E0FA
:100F200080E8A9A5BAA599A9462F4823C1F04C91FC
:100F3000942B9C93ABA5BCA59C914AA9942B9C9304
:100F4000ABA5BCA54C919AA9909594239C938695AA
:100F50002150310931F7DF91CF911F9108954C91C4
:100F600090959423E6CF1F93CF93DF93EC01162F38
:100F70008D8D9E8D0097C9F04DA95EA96FA978ADA2
:100F80000E94461666EA111167EACE010E945307D5
:100F90008D8D9E8D0097C9F049AD5AAD6BAD7CAD7E
:100FA000DF91CF911F910C9446168B8D9C8D892BD0
:100FB00021F08EAD9FAD0E94CA06EFA5F8A99081E1
:100FC0008CA9809589238083DDCFEFA5F8A9808146
:100FD0009CA9892B80838B8D9C8D892B29F0DF9197
:100FE000CF911F910C94EB06DF91CF911F91089543
:100FF000CF92DF92EF92FF921F93CF93DF93EC019A
:101000006B01142F8D8D9E8D009709F44FC069A13F
:10101000062E000C770B0E9454168D8D9E8DDC01E0
:10102000ED91FC910190F081E02D60E00995760151
:10103000CC24C394D12C11508D8D9E8D1F3F69F10E
:10104000B0E2CB16D104B8F00E94691669A1062E51
:10105000000C770B8D8D9E8D0E9454168D8D9E8D6C
:10106000DC01ED91FC910190F081E02D60E00995AB
:10107000CC24C394D12C8D8D9E8DF7016491DC011D
:10108000ED91FC910190F081E02D0995BFEFCB1A15
:10109000DB0AEFEFEE1AFE0ACECFDF91CF911F9160
:1010A000FF90EF90DF90CF900C946916EDA5FEA510
:1010B00090818BA98095892380837B01115070F1E9
:1010C000F70184912B8D3C8D232B31F00E94E40697
:1010D000FFEFEF1AFF0AF2CF28E030E040E8E9A581
:1010E000FAA599A9582F5423A9F05081952B9083E4
:1010F000EBA5FCA590815AA9952B9083EBA5FCA5A7
:1011000050819AA990959523908346952150310955
:1011100031F7DECF508190959523E9CFDF91CF91C4
:101120001F91FF90EF90DF90CF900895FC01868192
:1011300097819C01295F3F4F37FF02C0295F3F4FD6
:1011400083E0359527958A95E1F784819581289FDD
:10115000A001299F500D389F500D112470E060E0D0
:10116000878D90A10C94A51A8F929F92AF92BF92F7
:10117000CF92DF92EF92FF920F931F93CF93DF9363
:10118000EC01862EB42EA22E902E8F8D98A1892B45
:1011900039F1CE010E9496088E819F816C817D81FC
:1011A000813291050CF046C0AC014052510957FF05
:1011B00002C04F5F5F4F559547956357710977FFA1
:1011C00002C06F5F7F4F75956795CC24C394D12C77
:1011D000A0E2EA2EF12C03E710E02EE830E045C053
:1011E0002E813F81C901079697FD079623E09595CB
:1011F00087952A95E1F72C813D81AC01429FC00182
:10120000439F900D529F900D11240E947B1998A32B
:101210008F8F892B09F0BDCF80E0DF91CF911F9197
:101220000F91FF90EF90DF90CF90BF90AF909F9085
:101230008F900895AC014054510957FF02C04F5F91
:101240005F4F559547956255710977FF02C06F5FF3
:101250007F4F75956795CC24C394D12C80E4E82EFC
:10126000F12C02E510E02EE632E0CE010E94FC0FE8
:101270008AA22D8D3E8D2115310509F4A2C09B2D2A
:10128000B11006C08E819F81809709F098C09CE3C1
:1012900099A3992009F44BC1C9010E943416AA20D0
:1012A000F1F088A587FD1BC061E00E94CD1461E0CC
:1012B00088A50E94091561E070E080E090E00E943E
:1012C000301460E088A50E9409156AE070E080E0B3
:1012D00090E00E94301461E088A50E9409152D8DD0
:1012E0003E8D2115310509F4E6C04DA95EA96FA90F
:1012F00078ADC9010E94461644E06AE870E0CE016C
:101300000E94F8076E816150CE010E94530744E0AD
:1013100066E870E0CE010E94F8078AA160E18130A2
:1013200009F064E1CE010E94530744E062E870E0F6
:10133000CE010E94F8078FE88DAF8C819D818038A7
:10134000910509F0C8C08E819F818034910509F014
:10135000CEC08AA1813009F0DAC08FE98DAF12E1E9
:101360006AEDCE010E945307612FCE010E94530700
:1013700061E8CE010E9453076DADCE010E94530774
:1013800069EDCE010E9453078AA162E2813009F023
:1013900061EFCE010E94530746E06CE770E0CE019A
:1013A0000E94F8078D8D9E8D009709F4B2C049AD5B
:1013B0005AAD6BAD7CAD0E94461681E02ECF9DE309
:1013C00067CF61E08EA10E94CD1461E08FA10E94E1
:1013D000CD148EA1082E000C990BFC01EA5AF54F92
:1013E000E491F0E0EE0FFF1FE659F54F259134919F
:1013F0003EA72DA7FC01EE5BF54FE491EBAB8FA16F
:10140000082E000C990BFC01EA5AF54FE491F0E02C
:10141000EE0FFF1FE659F54FA591B491B8ABAFA7FA
:10142000FC01EE5BF54FE491ECAB8C91E82BEC9377
:101430008B8D9C8D892B31F0992009F430CF0E943F
:101440008B132DCF61E08CA10E94CD1461E08DA1A2
:101450000E94CD148CA1082E000C990BFC01EA5AB5
:10146000F54FE491F0E0EE0FFF1FE659F54F25919F
:1014700034913AA729A7FC01EE5BF54FE491E9AB63
:101480008DA1082E000C990BFC01EA5AF54FE4914E
:10149000F0E0EE0FFF1FE659F54FA591B491BCA700
:1014A000ABA7FC01EE5BF54FE491EAAB8C91E095C4
:1014B000E823EC93F4CE8B8D9C8D892B21F08EAD9F
:1014C0009FAD0E94CA06EFA5F8A990818CA98095CE
:1014D0008923808311CF8036910569F48E819F81A5
:1014E000409729F48AA1813021F480E18DAF12E088
:1014F00037CF8FEAFBCF80349105C9F78E819F816A
:101500008097A9F78AA1813011F480E127CF8FEC71
:1015100025CFEFA5F8A980819CA9892B80838B8D8D
:101520009C8D892B09F449CF0E94EB0646CFA11070
:10153000B8CEDBCE0F931F93CF93DF93DC0157FD23
:1015400046C016968D919C911797481759070CF035
:101550003EC077FF04C0260F371F70E060E014968E
:10156000CD91DC911597CB01820F931FC817D90736
:101570001CF49E01261B370B1216130644F5FA01C4
:1015800057FD379683E0F595E7958A95E1F7EC9F4F
:10159000C001ED9F900DFC9F900D1124680F791FE5
:1015A0005F96ED91FC91E60FF71F4770552781E09C
:1015B00090E001C0880F4A95EAF7482F01301105E5
:1015C00059F0A8F02E0F3F1F02301105E1F0DF9116
:1015D000CF911F910F9108952E0F3F1FE217F30730
:1015E000B1F38191DF011197842B8C93F7CF809514
:1015F0002E0F3F1FE217F30751F39191DF0111976F
:1016000098239C93F7CFE217F30709F38191DF0149
:10161000119784278C93F7CFEF92FF920F931F932C
:10162000CF93DF93EC0177FD76C0EC80FD806E15E3
:101630007F050CF070C057FF04C0240F351F50E029
:1016400040E08E819F81FA01E20FF31F8E179F0702
:101650001CF49C01241B350B121613060CF05BC006
:10166000922F842F8695869586958E9DD0018F9D8D
:10167000B00D11246A0F7B1FAF8DB8A1A60FB71F45
:10168000477049F188E0841B482F682F70E0FB0108
:10169000EC58FF4FE491281708F063C0621B7109F2
:1016A0002FEF30E002C0359527956A95E2F7E223E7
:1016B0000130110539F0B0F10230110561F58C915E
:1016C000E82702C08C91E82BEC93941720F12C8131
:1016D0003D81A20FB31FE92FE41BE83078F0023000
:1016E000110521F58E2F9C9190959C932C813D8125
:1016F000A20FB31F88508830B0F7E770EE2359F07F
:10170000F0E0E459FF4FE49101301105F9F010F1D8
:101710000230110519F1DF91CF911F910F91FF90C8
:10172000EF900895E0958C91E823CECF81E00115EC
:10173000110509F480E081959E2F8C932C813D81C9
:10174000A20FB31F98509830C0F7D7CF8C91E82BD9
:10175000EC93E1CFE0958C91E823FACF8C91E827C8
:10176000F7CF0130110509F4ADCFE0F202301105D9
:1017700009F4A5CFAE0DBF1DAECF0F931F93FA0195
:10178000DC0156964C915697423089F0433039F13E
:101790004130F9F414964D915C91DA01AE1BBF0B08
:1017A000FD013197AB01BF010E940C0B15C01696CD
:1017B0004D915C91DA01AE1BBF0BFD013197DC014D
:1017C00014964D915C91DA01A61BB70BBD01621B0B
:1017D000730BAF010E949A0A1F910F9108951696FC
:1017E0004D915C91DA01A61BB70BBD01621B730B17
:1017F000D9CF0F931F93FA01DC0156964C9156975F
:10180000423091F0433049F1413009F514964D9141
:101810005C91DA01AE1BBF0BFD01E21BF30BAB01C8
:10182000BF010E949A0A16C014964D915C91DA018C
:10183000A61BB70BBD0161507109DC0116964D91D5
:101840005C91DA01AE1BBF0BFD01E21BF30BAF0194
:101850000E940C0B1F910F91089516964D915C916B
:10186000DA01A61BB70BBD0161507109D8CFCF9229
:10187000DF92EF92FF920F931F93CF93DF93EC01D0
:101880008D8D9E8D009709F479C04DA95EA96FA931
:1018900078AD0E94461644E068E670E0CE010E94F2
:1018A000F8078C819D818034910509F077C060E252
:1018B000CE010E9453076C81615ECE010E945307E6
:1018C0002E813F81C901079697FD079623E09595E4
:1018D00087952A95E1F72C813D81829F7001839F36
:1018E000F00C929FF00C11240F8D18A18D8D9E8D00
:1018F000E00EF11E009709F46DC069A1062E000CE0
:10190000770B0E9454168D8D9E8DDC01ED91FC911C
:101910000190F081E02D60E40995680101E010E09C
:101920008D8D9E8DEC14FD0409F43FC0003211052D
:10193000B0F00E94691669A1062E000C770B8D8D00
:101940009E8D0E9454168D8D9E8DDC01ED91FC9133
:101950000190F081E02D60E4099501E010E08D8DAB
:101960009E8DF60161916F01DC01ED91FC9101907A
:10197000F081E02D09950F5F1F4FD2CF8B8D9C8D8D
:10198000892B21F08EAD9FAD0E94CA06EFA5F8A964
:1019900090818CA98095892380837DCF60E0CE01E2
:1019A0000E9453076C81615088CF0E9469168D8D0B
:1019B0009E8D009709F443C049AD5AAD6BAD7CAD27
:1019C000DF91CF911F910F91FF90EF90DF90CF901B
:1019D0000C944616EDA5FEA580819BA9892B8083DA
:1019E000E016F10621F3F80181918F012B8D3C8DDA
:1019F000232B19F00E94E406F3CF28E030E040E802
:101A0000E9A5FAA599A9582F5423A9F05081952B3F
:101A10009083EBA5FCA590815AA9952B9083EBA50B
:101A2000FCA550819AA990959523908346952150C5
:101A3000310931F7D5CF508190959523E9CFEFA5A6
:101A4000F8A980819CA9892B80838B8D9C8D892B03
:101A500051F0DF91CF911F910F91FF90EF90DF90A8
:101A6000CF900C94EB06DF91CF911F910F91FF90D7
:101A7000EF90DF90CF9008952F923F924F925F9218
:101A80006F927F928F929F92AF92BF92CF92DF928E
:101A9000EF92FF920F931F93CF93DF9300D000D06C
:101AA00000D0CDB7DEB73C016A013E832D83FC82B6
:101AB000EB825801A41AB50AB7FE03C0B194A194F1
:101AC000B1088D809E80861A970A97FE03C0919474
:101AD000819491088A149B045CF0902F812F0D81D2
:101AE0001E819D838E839C2D8D2D6B01692F782FF8
:101AF0000C151D055CF09D818E817E836D83692FA1
:101B0000782F902F812F8601C92ED82E1601201AEA
:101B1000310A2B012D813E81421A530A57FE03C020
:101B2000519441945108710137FE03C03FEFE31A0D
:101B3000F30AF594E7948D819E81861797075CF5EB
:101B4000A1E0B0E0BA83A983C016D1064CF1D3015D
:101B5000ED91FC910484F585E02D2B813C81A80159
:101B60006D817E818A149B041CF04D815E81B801D9
:101B7000C3010995E418F508F7FE0AC02D813E81DE
:101B800089819A81280F391F3E832D83E20CF31C33
:101B90000F5F1F4FD9CF2FEF3FEF3A832983D4CF69
:101BA00026960FB6F894DEBF0FBECDBFDF91CF9162
:101BB0001F910F91FF90EF90DF90CF90BF90AF906B
:101BC0009F908F907F906F905F904F903F902F905D
:101BD00008950895DC01ED91FC910084F185E02DDC
:101BE00009940F931F93DC01ED91FC91048CF58D0A
:101BF000E02D09951F910F9108950F931F93DC011C
:101C0000ED91FC91068CF78DE02D09951F910F91B8
:101C10000895EF92FF920F931F93DC01ED91FC91D9
:101C200000A0F1A1E02D09951F910F91FF90EF9079
:101C300008958F929F92AF92BF92CF92DF92EF92D0
:101C4000FF920F931F93CF93DF93EC015B014A0147
:101C500069017801E881F9810284F385E02D099515
:101C6000C80CD91C860101501109E881F98104884A
:101C7000F589E02D9501A401B501CE010995E88112
:101C8000F9810688F789E02DCE01DF91CF911F9170
:101C90000F91FF90EF90DF90CF90BF90AF909F900B
:101CA0008F9009948F929F92AF92BF92CF92DF92C2
:101CB000EF92FF920F931F93CF93DF93EC015B01A1
:101CC0004A016901E881F9810284F385E02D0995D3
:101CD00095012C0D3D1D21503109E881F9810488C1
:101CE000F589E02D78018401A401B501CE010995A3
:101CF000E881F9810688F789E02DCE01DF91CF9147
:101D00001F910F91FF90EF90DF90CF90BF90AF9019
:101D10009F908F9009944F925F926F927F928F92D3
:101D20009F92AF92BF92CF92DF92EF92FF920F936A
:101D30001F93CF93DF936C012B015A0139014801A6
:101D4000DC01ED91FC910284F385E02D0995E2011F
:101D5000640C751CD601ED91FC91C615D7055CF499
:101D60000088F189E02D87019401A501BE01C6011B
:101D700009952196EFCF0688F789E02DC601DF91FE
:101D8000CF911F910F91FF90EF90DF90CF90BF9078
:101D9000AF909F908F907F906F905F904F9009943D
:101DA000EF92FF920F931F93DC011A960D911C91F5
:101DB0001B9718962D913C911997ED91FC9100A0DD
:101DC000F1A1E02D7B0150E040E070E060E009957A
:101DD0001F910F91FF90EF9008956F927F928F92D5
:101DE0009F92AF92BF92CF92DF92EF92FF920F93AA
:101DF0001F93CF93DF93EC016B015A013901480126
:101E0000E881F9810284F385E02D0995E881F98163
:101E10000288F389E02D87019301A501B601CE0167
:101E20000995A501480D591D41505109E881F981D5
:101E30000288F389E02D9301B601CE010995E8816E
:101E4000F9810088F189E02D9401A501B601CE0148
:101E50000995C60CD71CB60161507109E881F9815A
:101E60000088F189E02D9401A501CE010995E88152
:101E7000F9810688F789E02DCE01DF91CF911F917E
:101E80000F91FF90EF90DF90CF90BF90AF909F9019
:101E90008F907F906F90099408956F927F928F92A8
:101EA0009F92AF92BF92CF92DF92EF92FF920F93E9
:101EB0001F93CF93DF935C01EB016A014901380165
:101EC0008701DC01ED91FC916217730719F5641627
:101ED00075062CF0962D872D3A01C92ED82E960125
:101EE000261937092F5F3F4F048CF58DE02DA30194
:101EF000BE01C5010995DF91CF911F910F91FF9010
:101F0000EF90DF90CF90BF90AF909F908F907F9099
:101F10006F9008954615570591F42617370724F05A
:101F2000892D4B01C22FD82F9E01281939092F5F07
:101F30003F4F068CF78DE02DA601B401DACF028465
:101F4000F385E02D0995D501ED91FC910488F58983
:101F5000E02D83019401A601BE01C5010995D501BB
:101F6000ED91FC910688F789E02DC501DF91CF91B5
:101F70001F910F91FF90EF90DF90CF90BF90AF90A7
:101F80009F908F907F906F900994FC016370668B97
:101F90008481958126813781613039F0633029F061
:101FA0009187808733872287089531872087938799
:101FB00082870895FC011382128286E391E0918367
:101FC00080837583648357834683718760875387D3
:101FD0004287168A158614861786168681E0858BB9
:101FE000848B2FEF3FEF338B228B318B208B878BB2
:101FF000108E128E118E08953F924F925F926F92C3
:102000007F928F929F92AF92BF92CF92DF92EF9288
:10201000FF920F931F93CF93DF93CDB7DEB72A972D
:102020000FB6F894DEBF0FBECDBF9A8789877E8337
:102030006D8358874F8329013701DC01ED91FC91B5
:102040000284F385E02D0995C801079697FD079650
:102050009C0193E0359527959A95E1F73A8329837A
:10206000912C812CB12CA12C312C8F8198858A0D3B
:102070009B1D9C838B83A614B704ACF5F12CE12C3B
:10208000E016F10644F5C70187709927330C892BB8
:1020900059F4F70183E0F595E7958A95E1F7E80DA6
:1020A000F91DE40DF51D349037FE11C0A985BA85E0
:1020B000ED91FC9111970484F585E02D96014B81FB
:1020C0005C816D817E816E0D7F1DCD010995BFEF15
:1020D000EB1AFB0AD5CF2FEFA21AB20A89819A8197
:1020E000880E991EC2CFA985BA85ED91FC911197F2
:1020F0000688F789E02DCD012A960FB6F894DEBF49
:102100000FBECDBFDF91CF911F910F91FF90EF9048
:10211000DF90CF90BF90AF909F908F907F906F9007
:102120005F904F903F9009942F923F924F925F9211
:102130006F927F928F929F92AF92BF92CF92DF92D7
:10214000EF92FF920F931F93CF93DF93CDB7DEB73C
:102150006A970FB6F894DEBF0FBECDBF9A8F898FF6
:102160007A8369834A01D22E18870F833701BC2CEA
:10217000DC0159962D913C915A972115310509F0B2
:1021800015C118968D919C911997681779070CF0D5
:10219000D7C11A968D919C91481759070CF0D0C160
:1021A0004C2C512CB6E0CB9E600D711D11247C8708
:1021B0006B87161617060CF0C3C1EA2DF0E0FA87FC
:1021C000E98793E0EE0FFF1F9A95E1F7F88BEF8711
:1021D000CF01840F951F181619060CF0B1C1A98DF7
:1021E000BA8D58968C91811104C0BFEABD1508F4D0
:1021F000D394A98DBA8DED91FC9111970284F3854A
:10220000E02DCD010995B5E0DB9EC0011124E981E7
:10221000FA81FC83EB83312C212C9C01225D3A4F07
:10222000388F2F8B4A2D50E05E8B4D8BEF89F88DC8
:10223000E20DF31D44919E828D82D12CC12C6981C7
:102240007A81620D731D7A8B698B842F90E09C8B51
:102250008B8BE98DFA8DA081B18140FF82C0F1E0C6
:10226000BF126FC0AF126DC01C96ED91FC912F8113
:102270003885A4014C0D5D1D69897A89898D9A8DF7
:102280000995EB89FC89F595E7954E2F5FEFC51A07
:10229000D50A6D817E818D899E89680F791F7E8325
:1022A0006D8398E0C916D10481F6AFEF2A1A3A0A75
:1022B000EB81FC81E40DF51DFC83EB83F5E02F162B
:1022C000310409F0B3CF2F81388526153705B9F0D1
:1022D000A98DBA8DED91FC91B1E0BB1257C0AB1244
:1022E00055C069817A816B5F7F4F0088F189E02D4D
:1022F000830128E030E0A401898D9A8D0995A98D8C
:10230000BA8DED91FC9111970688F789E02DCD01EA
:102310006A960FB6F894DEBF0FBECDBFDF91CF91A6
:102320001F910F91FF90EF90DF90CF90BF90AF90F3
:102330009F908F907F906F905F904F903F902F90E5
:1023400009941E96ED91FC91EF80F88409851A8519
:1023500092014D815E816B817C81898D9A8D099579
:1023600090CF2F8138852615370509F48ACF31E0C3
:10237000B31207C0A31205C01C96ED91FC91930106
:1023800078CF1E96ED91FC917301E0CF6B857C8533
:10239000641975090684F785E02D73010F85188986
:1023A0009201A401898D9A8D0995A9CFF9013496DE
:1023B0009491329745915491D91AB7E0DB9E400D24
:1023C000511D1124F901259134913C8B2B8BFA017D
:1023D00025903490FA013296749031963491398B6D
:1023E000329664903196449041E04C1518F04A15AD
:1023F00008F07FC0662D062C000C770B7C836B8366
:10240000842D042C000C990B9E838D83A98DBA8D8D
:10241000ED91FC9111970284F385E02DCD01099592
:10242000512CD12CC12CEA2DF0E0FA87E9872B2D15
:1024300030E03C872B87A401440D511D47FC5A9581
:10244000588F4F8B69817A81660D711D67FC7A9573
:102450007E876D877989C71608F051CF2C2D30E023
:102460004D815E81420F531FA985BA854A9FC001E5
:102470004B9F900D5A9F900D1124FC01E80DF91D02
:10248000F88BEF87852D612C4F89588D420F531F94
:102490005E8B4D8B671408F050C044244394480E63
:1024A000877041F4C1010196EB89FC89E20DF31DAF
:1024B000D4901C01D7FE19C0A98DBA8DED91FC9165
:1024C000662D70E0B1E0BB1219C0AB1217C02D85AC
:1024D0003E85620F731F0484F585E02D2F813885BA
:1024E0004D895E89898D9A8D0995DD0C6394842DC3
:1024F000D1CF1E821D821C821B8288CF4B815C81C2
:10250000640F751FAB85BC856A9FC0016B9F900DE2
:102510007A9F900D112469817A81680F791F068452
:10252000F785E02DEF80F88409851A859D014F8598
:102530005889898D9A8D0995D8CF570CC3948ACF25
:102540006A960FB6F894DEBF0FBECDBFDF91CF9174
:102550001F910F91FF90EF90DF90CF90BF90AF90C1
:102560009F908F907F906F905F904F903F902F90B3
:1025700008958F929F92AF92CF92EF92FF920F9316
:102580001F93CF93DF93EC01262F898D9A8D0097AF
:1025900009F051C06A30D1F41D861C868D8948E04F
:1025A000849F900111248E859F85820F931F9F87A2
:1025B0008E8781E090E0DF91CF911F910F91FF9086
:1025C000EF90CF90AF909F908F9008956D3089F3EA
:1025D000CC88AD888F898823C1F08C859D8536E0B5
:1025E000C39E800D911D11244885598548175907B0
:1025F00064F44E855F851D861C8638E0A39EC0016D
:102600001124840F951F9F878E87EA88FB8808898D
:1026100019894E855F856C857D85CE010E94941059
:102620002C898C859D8546E0249F800D911D112469
:102630009D878C87BECF6A3069F41D861C86FC019D
:102640003896E4912D898E859F85E29F800D911D9E
:102650001124ADCF6D3009F4ACCFFC013496349128
:10266000631708F4A6CF3296E491E61708F4A1CFD9
:10267000FC01329685909490462F431B342F47E0FF
:10268000349F800C911C1124F401329634913196C0
:10269000E4913323A9F1EE2399F1CC88F401359626
:1026A000E491AD884F89442301F10E2E000CFF0BFD
:1026B000E30FF11DCE9EA001CF9E500D11246C851D
:1026C0007D85460F571F68857985641775076CF4FB
:1026D0004E855F851D861C86FC013896E491AE9E72
:1026E000400D511D11245F874E87EA88FB880889B9
:1026F00019894E855F856C857D85CE010E94941079
:10270000F4013496E4912C898C859D85E29F800D9F
:10271000911D11248DCFCF93CFB7F8948091B30141
:10272000811127C0E0E6FAE08491ECE4FAE09491AC
:10273000E82FF0E0EE0FFF1FEC58F54FA591B49194
:10274000EC91E92321F461E08AE00E94091561E03F
:102750008AE00E94CD148CB580618CBD8CB58064FC
:102760008CBD61E08DE00E94CD1461E08BE00E94A1
:10277000CD148091B3018F5F8093B301CFBFCF9110
:1027800008951F920F920FB60F9211242F933F932B
:102790008F939F93AF93BF938091B5019091B601B2
:1027A000A091B701B091B8013091B40123E0230F9B
:1027B0002D3758F50196A11DB11D2093B4018093CA
:1027C000B5019093B601A093B701B093B801809181
:1027D000B9019091BA01A091BB01B091BC010196E1
:1027E000A11DB11D8093B9019093BA01A093BB01C3
:1027F000B093BC01BF91AF919F918F913F912F9169
:102800000F900FBE0F901F90189526E8230F029689
:10281000A11DB11DD2CF3FB7F8948091B90190911D
:10282000BA01A091BB01B091BC0126B5A89B05C01F
:102830002F3F19F00196A11DB11D3FBFBA2FA92F3F
:10284000982F8827BC01CD01620F711D811D911D3C
:1028500042E0660F771F881F991F4A95D1F70895A8
:102860008F929F92AF92BF92CF92DF92EF92FF92A0
:102870006B017C010E940B144B015C01C114D1045B
:10288000E104F104E9F00E947D160E940B1468191E
:1028900079098A099B09683E73408105910570F3A7
:1028A00021E0C21AD108E108F10888EE880E83E021
:1028B000981EA11CB11CC114D104E104F10429F734
:1028C000FF90EF90DF90CF90BF90AF909F908F9050
:1028D0000895789484B5826084BD84B5816084BD98
:1028E00085B5826085BD85B5816085BDEEE6F0E089
:1028F000808181608083E1E8F0E0108280818260E5
:102900008083808181608083E0E8F0E08081816065
:102910008083E1EBF0E0808184608083E0EBF0E095
:10292000808181608083EAE7F0E080818460808339
:1029300080818260808380818160808380818068E3
:1029400080831092C1000895833081F028F4813093
:1029500099F08230A9F008958730A9F08830C9F045
:102960008430B1F4809180008F7D03C0809180001D
:102970008F7780938000089584B58F7784BD089504
:1029800084B58F7DFBCF8091B0008F778093B000AE
:1029900008958091B0008F7DF9CFCF93DF9390E0C1
:1029A000FC01EE5BF54F24918A5A954FFC0184910E
:1029B0008823C9F090E0880F991FFC01EC58F54F6F
:1029C000A591B491FC01E659F54FC591D4916111DF
:1029D0000DC09FB7F8948C91209582238C938881A9
:1029E000282328839FBFDF91CF910895623051F44F
:1029F0009FB7F8943C91822F809583238C93E88134
:102A00002E2BEFCF8FB7F894EC912E2B2C938FBFFA
:102A1000EACF1F93CF93DF93282F30E0F901E25DD7
:102A2000F54F8491F901EE5BF54FD491F901EA5A23
:102A3000F54FC491CC23A9F0162F81110E94A41444
:102A4000EC2FF0E0EE0FFF1FE659F54FA591B49182
:102A50008FB7F894EC91111108C0D095DE23DC9368
:102A60008FBFDF91CF911F910895DE2BF8CF0E9489
:102A7000A01A0E94371508950E9469140E943B1500
:102A80000E949B05C0E0D0E00E946C052097E1F316
:102A90000E940000F9CFAF92BF92CF92DF92EF92E7
:102AA000FF920F931F93CF93DF936C017B018B01F8
:102AB000040F151FEB015E01AE18BF08C017D10748
:102AC00059F06991D601ED91FC910190F081E02DD2
:102AD000C6010995892B79F7C501DF91CF911F9127
:102AE0000F91FF90EF90DF90CF90BF90AF9008953F
:102AF0008091F1019091F201891B990B08959091B9
:102B0000F2018091F1012FEF3FEF981748F4E92F80
:102B1000F0E0ED50FE4F208130E09F5F9093F20196
:102B2000C9010895E091F2018091F101E81730F4B4
:102B3000F0E0ED50FE4F808190E008958FEF9FEF21
:102B400008950895CF93DF93EC01E091C901F091CE
:102B5000CA013097F1F09091F2018091F10198173C
:102B6000C0F090E0292F30E02617370754F4DE013B
:102B7000A20FB31F4C912D503E4FD9014C939F5F34
:102B8000F1CF1092F2016093F101CB01DF91CF916F
:102B90000994DF91CF910895E091CB01F091CC01A0
:102BA000309729F01092CF011092CE010994089528
:102BB000CF93DF931F92CDB7DEB769832091CD010C
:102BC0002223F9F02091CE01203258F021E030E0AC
:102BD000FC013383228390E080E00F90DF91CF915E
:102BE00008958091CF01E82FF0E0E053FE4F9981E6
:102BF00090838F5F8093CF018093CE0181E090E03E
:102C0000ECCF61E0CE0101960E94BC16F7CFCF92C7
:102C1000DF92EF92FF920F931F93CF93DF937C018C
:102C2000CB018A012091CD01222389F0EB016B01B8
:102C3000C40ED51ECC15DD0569F06991D701ED9163
:102C4000FC910190F081E02DC7010995F3CF642F2D
:102C50000E94BC16C801DF91CF911F910F91FF9088
:102C6000EF90DF90CF9008951092F2011092F10151
:102C70001092CF011092CE010E947E168CEC95E14D
:102C80000E94E81682EA95E10C94E316CB01BA01A2
:102C90000C94A91681E08093CD016093F00110920D
:102CA000CF011092CE0108950C944A160F93062F6F
:102CB00021E04091CE0160ED71E08091F0010E9431
:102CC00009171092CF011092CE011092CD010F91F1
:102CD000089561E00C945616EDEBF1E01382128238
:102CE00088EE93E0A0E0B0E084839583A683B78369
:102CF00082E691E091838083089508951092860280
:102D000081E0809384021092830261E082E10E945C
:102D1000091561E083E10E940915E9EBF0E080818B
:102D20008E7F808380818D7F808388E48093B8004C
:102D300085E48093BC000895ECEBF0E080818A7B11
:102D4000808360E082E10E94091560E083E10C94D9
:102D500009159B01AC0160E074E284EF90E00E94F1
:102D60005319205131094109510956954795379515
:102D700027952093B800089520913502260F332718
:102D8000331F21323105ECF420918602FC0190E0E2
:102D900080E0243069F082E00895A091350221910D
:102DA000AC01495C5D4FA40FB52FB11D2C9301966A
:102DB000861798F380913502680F6093350280E0A2
:102DC000089581E0089590937A028093790208959E
:102DD00090937C0280937B02089585EC8093BC00E5
:102DE000109286020895CF93DF9391E090937E0234
:102DF000882361F0C091B800D091BA000E949C165F
:102E00000E947E16D093BA00C093B800DF91CF9194
:102E100008954F925F926F927F928F929F92AF929E
:102E2000BF92EF92FF920F931F93CF93DF934132A4
:102E300008F0D9C0F22ED42FE72E162FC82F0E94EB
:102E40000B144B015C0180918602811170C082E0FD
:102E500080938602009384028FEF80931302109276
:102E60005802D0935702912FA9E5B2E0E12FFE2D31
:102E70008E2F891B8D1708F48FC0109285028091C8
:102E80008502CC0FC82BC0938502809183028130CC
:102E900009F085C0109283020E940B144B015C0163
:102EA000809185028093BB0080917F029091800287
:102EB000A0918102B0918202892B8A2B8B2BA1F0E9
:102EC0000E940B1400917F021091800220918102D8
:102ED00030918202681979098A099B090617170738
:102EE0002807390708F444C08091BC0083FDD8CF7F
:102EF00085EC8093BC000E940B144B015C01FF2009
:102F000029F080918602823009F44BC0809113022F
:102F10008F3F09F46AC080911302803209F467C0C0
:102F200080911302803309F464C084E026C080914C
:102F30007F0290918002A0918102B0918202892B40
:102F40008A2B8B2B09F47FCF0E940B1440907F02B9
:102F50005090800260908102709082026819790915
:102F60008A099B09461657066806790608F06BCF52
:102F700080917D020E94F31685E0DF91CF911F9131
:102F80000F91FF90EF90BF90AF909F908F907F90A8
:102F90006F905F904F90089581918D9369CF85EEEA
:102FA000A8CF80917F0290918002A0918102B09180
:102FB0008202892B8A2B8B2B09F4A1CF0E940B1440
:102FC00000917F0210918002209181023091820253
:102FD000681979098A099B0906171707280739070D
:102FE00008F08DCFC5CF81E0C8CF80E0C6CF82E0AA
:102FF000C4CF83E0C2CF85ED8093BC0080917F0277
:1030000090918002A0918102B09182020796A11D49
:10301000B11D23E0B695A795979587952A95D1F789
:103020002091BC0024FD03C01092860208954091B7
:103030007F02509180026091810270918202452B43
:10304000462B472B69F30097A105B10541F02AE211
:103050002A95F1F700C00197A109B109E1CF80914C
:103060007D020C94F3161F920F920FB60F9211244B
:103070002F933F934F935F936F937F938F939F9380
:10308000AF93BF93EF93FF938091B900887F803611
:1030900009F44CC008F03FC0883209F4A8C018F504
:1030A000803109F49CC0B8F4882309F4F9C0883051
:1030B00009F495C0FF91EF91BF91AF919F918F91CE
:1030C0007F916F915F914F913F912F910F900FBE24
:1030D0000F901F901895883109F489C0803251F7FC
:1030E0008093130215C0803409F49EC048F48033E5
:1030F000B9F38833F9F6809313020E94ED16DACF04
:10310000803509F485C0883509F496C0883491F675
:103110000E94FB17CFCF883909F48CC038F5883767
:1031200029F050F4883611F0803721F683E080933F
:1031300086021092140257C0883809F47BC0803987
:1031400019F0803809F0B6CF80911402803208F06F
:1031500071C0E091140281E08E0F8093140280917F
:10316000BB00F0E0EB5EFD4F80833DC0803B39F05B
:10317000E0F4803A09F479C0883A09F09BCF84E002
:10318000809386021092360210923502E0917B0203
:10319000F0917C0209958091350281110FC081E088
:1031A000809335021092370209C0803C09F476C042
:1031B000883C09F473C0883B09F07CCFE09136026B
:1031C00081E08E0F80933602F0E0E95CFD4F808154
:1031D0008093BB00909136028091350229C0809186
:1031E00085028093BB0085EC8093BC0063CF9091F7
:1031F000580280915702981758F5E091580281E0E3
:103200008E0F80935802F0E0E75AFD4F8081E9CF9E
:10321000E091580281E08E0F809358028091BB00AC
:10322000F0E0E75AFD4F8083909158028091570259
:103230009817C8F285E8D8CFE091580281E08E0F48
:10324000809358028091BB00F0E0E75AFD4F8083E5
:103250008091840281115CCF81E08093830284EAB3
:103260008093BC001092860225CF0E94ED168091BB
:103270001402803230F4E0911402F0E0EB5EFD4F76
:1032800010826091140270E0E0917902F0917A026C
:1032900085E192E00995109214020CCF85ECE0CF05
:1032A0001092130235CFA1E21A2EAA1BBB1BFD01FF
:1032B0000DC0AA1FBB1FEE1FFF1FA217B307E40715
:1032C000F50720F0A21BB30BE40BF50B661F771F6D
:1032D000881F991F1A9469F760957095809590954D
:1032E0009B01AC01BD01CF010895EE0FFF1F0590BA
:1032F000F491E02D09940F931F93CF93DF938230C5
:10330000910510F482E090E0E0918902F0918A0248
:1033100030E020E0B0E0A0E0309799F421153105CD
:1033200009F44AC0281B390B24303105D8F58A81AD
:103330009B816115710589F1FB0193838283FE01F5
:1033400011C0408151810281138148175907E0F073
:103350004817590799F4109761F012960C93129739
:1033600013961C933296CF01DF91CF911F910F914D
:1033700008950093890210938A02F4CF2115310534
:1033800051F04217530738F0A901DB019A01BD0142
:10339000DF01F801C1CFEF01F9CF90938A0280934A
:1033A0008902CDCFFE01E20FF31F8193919322504A
:1033B000310939832883D7CF209187023091880241
:1033C000232B41F4209102013091030130938802B4
:1033D00020938702209100013091010121153105D0
:1033E00041F42DB73EB74091040150910501241BD3
:1033F000350BE0918702F0918802E217F307A0F401
:103400002E1B3F0B2817390778F0AC014E5F5F4F3A
:103410002417350748F04E0F5F1F509388024093E2
:103420008702819391939FCFF0E0E0E09CCFCF9310
:10343000DF930097E9F0FC01329713821282A0918A
:103440008902B0918A02ED0130E020E01097A1F4EA
:1034500020813181820F931F209187023091880251
:103460002817390709F061C0F0938802E0938702BA
:10347000DF91CF910895EA01CE17DF07E8F54A8181
:103480005B819E0141155105B1F7E901FB83EA8398
:1034900049915991C40FD51FEC17FD0761F4808144
:1034A00091810296840F951FE90199838883828117
:1034B00093819B838A83F0E0E0E012968D919C914A
:1034C00013970097B9F52D913C911197CD01029674
:1034D000820F931F209187023091880228173907A5
:1034E00039F6309751F510928A0210928902B09302
:1034F0008802A0938702BCCFD383C28340815181CD
:10350000840F951FC817D90761F44E5F5F4F8881FC
:103510009981480F591F518340838A819B819383EE
:1035200082832115310509F0B0CFF0938A02E09330
:1035300089029ECFFD01DC01C0CF13821282D7CF5A
:1035400081E090E0F8940C94AC1ADC0101C06D931A
:1035500041505040E0F7089515E0C1E4D5E004C0C3
:10356000FE010E9475192196C234D107C9F7F8945B
:02357000FFCF8B
:1035720000008B02200000000000B9124B15170654
:103582001A061B06E90DEA0D090EF10DFD0D3C0DA3
:10359200E90DC50FB307F90BBD0B8B0ED00E4D0F06
:1035A200ED0E00000000B9124B1517061A06391568
:1035B200E90DEA0D090EF10DFD0D3C0DE90DC50FEA
:1035C2004C0F190E520E8B0ED00E4D0FED0E000049
:1035D2000000D81507161706A11578157F15921544
:00000001FF
