:100000000C94AA020C94CE110C94A7110C94D20259
:100010000C94D2020C94D2020C94D2020C94750F60
:100020000C94D2020C94D2020C94D2020C94D20200
:100030000C94D2020C94D2020C94D2020C94D202F0
:100040000C94F5110C94D2020C941B100C94F50F27
:100050000C94D2020C94D2020C94D2020C94D202D0
:100060000C94D2020C94D20200000000230026005F
:10007000290000000000240027002A0000000000E2
:10008000250028002B0004040404040404040202D4
:100090000202020203030303030301020408102007
:1000A0004080010204081020010204081020000012
:1000B0000008000201000003040700000000000027
:1000C00000005F00020204040304050C0BFFFE089D
:1000D000FE08FE016A032C0471200500CC092108EA
:1000E00082C4C991F2082207336D4BB202231087F4
:1000F000447CCAA81C3365548E9932AA012410A5E9
:100100003C6B1E2AA938E28849A5A1230025158A3F
:10011000C49DD44A655523554995544649E5A8726E
:100120005600261188C4AC862A2395A186494B73B4
:10013000A4A5002706316DCA00280BA4B47A8C4A06
:10014000BA754601290AA4B44A46D974C91A2A09BB
:10015000555C6B55AD66042B0B554C6B4671C88CCA
:1001600022002C0742B4C9480A2D06135CCA002E8F
:100170000622C4C9082F0A84C47A99638E390330D1
:100180000E8544DB52238D34D24823A905310984DE
:10019000459B9ABE4600320C8544DB52236929F305
:1001A0003802330E8544DB5223498D461A492D000F
:1001B000340B8544EB95549A636439350D8544CBF3
:1001C0002BA391D14823A905360E8544DB52238FFA
:1001D000A4461A492D00370A8444CBA1638E2E0011
:1001E000380E8544DB5223A9A5461A492D00390E45
:1001F0008544DB52238DA4461E492D003A0752C484
:10020000C988233B0972B4C9882329003C0956CC0C
:100210003B9236D6583D083554CBD070083E0A562E
:10022000CC8BC61A4B1B013F0A8544DBB2A5CCB46C
:10023000094012A93CFD465A6698E248FE543293A2
:100240009A1E11411289433CCAD4C61B468DA21E78
:100250002366A4E608420E8744CC694935A4259557
:100260001C430143108744ECAA47461B6AA8518DE2
:10027000E24800440F88C4CCADA3565A69A5954EF8
:100280006302450E86C4CB25938A23AA28931C2398
:10029000460E86C4CB25934C2A8EA8A21E11470E6B
:1002A0008744ECAA47461BCAA155962B481289449D
:1002B000CD482369A9E518514B2DB51A69044909A0
:1002C00084C4CA48D2D7084A0C86C4EBC81A69E469
:1002D0002BCA094B1189C4CC88769619A90C87467C
:1002E000525B230E4C0F86C4CBC81A69A4914632C8
:1002F000C931024D158B44CEC823ED99549249253E
:10030000995492D18CD652234E1188C48C5E3ACE29
:1003100038524C23C699D54E004F0E8744ECAEF4AC
:10032000C8238FAC729E00500F8744CC694925D5F5
:10033000901A6A3432005113983CEC46396AA595FC
:10034000562349A5D148192A00520D88C4CC2D3D09
:10035000F3D0D235D200530D86C4DB39F2D068E831
:1003600011D702540E86C4CB915C51238D34D22315
:1003700001551088C4CC484B471D75D451479D4743
:1003800004561188C4CC484B479D55462A2395A155
:10039000C61A57158B44CE486A4919CDA8928A2AA5
:1003A000A9BC36D21A6909581088C4CC484BC795E5
:1003B000D1C61BA599D511591188C4CC484B679556
:1003C00091CA50638D351C115A0B86C4CB91F57CB4
:1003D000EB31025B08A334CA50FE1A5C0C84C44A99
:1003E000CE28679433CA015D08A334CAF2D7105EE1
:1003F0000A65546B4679A65A075F061634CB01602E
:100400000623748A14610954C4CA56238D01620EEE
:1004100086C48B461A69641D71C4B50063095544CE
:10042000DB925BA605640E86C4FB461AA931E288FE
:10043000232D0365095544DB52E34623660C85C42E
:10044000EA52498EA8CD9100670D86343B8A533914
:10045000F7D8632400680E86C48B461A69641D7140
:10046000C41105690A84C49AD470BA46006A09A303
:10047000B49ABDBC46026B0E86448B461A69648DE5
:1004800038A2B2066C0884C4CAF46B046D0D5AC459
:100490008D92EA11E5887244036E0B56C48B524765
:1004A0001C7144016F0C56C4DB4872C411D548005E
:1004B000700D76B48B52471C718CA4D106710E77E7
:1004C000B4DB505249A5A6D250A311720954C48A74
:1004D0001A239A00730954C4DA90230E0574097321
:1004E000445A52439902750B56C48B1C71C49196A1
:1004F00001760B56C4CBB2A2CA1A4900770C5944F4
:10050000CDF28A4A65A59109780A56C4CBB2B24E9B
:10051000D600790D76B4CBB2A2CA1AC9AD11007A51
:10052000085544CB25CD317B0AA4B4AA9296966E89
:10053000017C068146CB217D0AA4B48A96B6922E10
:10054000097E0726DCDB520B00000004FFFF0000E1
:100550000200820E11241FBECFEFD8E0DEBFCDBF58
:1005600011E0A0E0B1E0ECE9F4E202C005900D92E8
:10057000A237B107D9F723E0A2E7B1E001C01D928D
:10058000AB34B207E1F712E0CAEAD2E004C0219727
:10059000FE010E943F12C93AD107C9F70E944D10CF
:1005A0000C944C120C940000662329F06A3019F068
:1005B000862F90E008958FEF9FEF0895EF92FF92BE
:1005C0000F93CF93DF937A01462F4770E0E8F0E076
:1005D00002C0F595E7954A95E2F75E2FDC01ED91B3
:1005E000FC91A089B0E0AE9DE001AF9DD00DBE9D15
:1005F000D00D1124FC01E0ACF1AC43E07695679599
:100600004A95E1F76C0F7D1FF701E60FF71FEC012C
:10061000C657DF4F011119C08881823018F49081CC
:10062000952B90838881813019F090819527908354
:10063000569511F4319650E82150310969F7DF9150
:10064000CF910F91FF90EF9008958881823018F438
:100650009081952B90838881813019F09081952726
:100660009083EA0FFB1F2150310979F7E8CF90E022
:1006700080E00895AF92BF92CF92DF92EF92FF9207
:100680000F931F93CF93DF936C017B018B01040FBA
:10069000151FEB015E01AE18BF08C017D10759F056
:1006A0006991D601ED91FC910190F081E02DC60198
:1006B0000995892B79F7C501DF91CF911F910F9192
:1006C000FF90EF90DF90CF90BF90AF900895FC0126
:1006D000538D448D252F30E0842F90E0821B930BA7
:1006E000541710F0CF96089501970895FC01918D4D
:1006F000828D981761F0A28DAE0FBF2FB11D5D9650
:100700008C91928D9F5F9F73928F90E008958FEFF1
:100710009FEF0895FC01918D828D981731F0828DA5
:10072000E80FF11D858D90E008958FEF9FEF0895FC
:10073000FC01918D228D892F90E0805C9F4F821B60
:1007400091098F739927089588E991E00E94980391
:1007500021E0892B09F420E0822F0895FC01A48D6B
:10076000A80FB92FB11DA35ABF4F2C91848D90E0D3
:1007700001968F739927848FA689B7892C93A089B6
:10078000B1898C91837080648C93938D848D981340
:1007900006C00288F389E02D80818F7D80830895D3
:1007A000EF92FF920F931F93CF93DF93EC0181E0C1
:1007B000888F9B8D8C8D98131AC0E889F989808168
:1007C00085FF15C09FB7F894EE89FF896083E8899B
:1007D000F98980818370806480839FBF81E090E08D
:1007E000DF91CF911F910F91FF90EF900895F62E1A
:1007F0000B8D10E00F5F1F4F0F731127E02E8C8DB4
:100800008E110CC00FB607FCFACFE889F9898081F8
:1008100085FFF5CFCE010E94AE03F1CFEB8DEC0F3B
:10082000FD2FF11DE35AFF4FF0829FB7F8940B8F15
:10083000EA89FB8980818062CFCFCF93DF93EC017F
:10084000888D8823B9F0AA89BB89E889F9898C91B8
:1008500085FD03C0808186FD0DC00FB607FCF7CF74
:100860008C9185FFF2CF808185FFEDCFCE010E9474
:10087000AE03E9CFDF91CF9108950895833081F0E1
:1008800028F4813099F08230A9F008958730A9F0DA
:100890008830C9F08430B1F4809180008F7D03C02E
:1008A000809180008F7780938000089584B58F7742
:1008B00084BD089584B58F7DFBCF8091B0008F7784
:1008C0008093B00008958091B0008F7DF9CF1F9381
:1008D000CF93DF93282F30E0F901E255FF4F849149
:1008E000F901E656FF4FD491F901EA57FF4FC49141
:1008F000CC23A9F0162F81110E943E04EC2FF0E0CA
:10090000EE0FFF1FE458FF4FA591B4918FB7F894F5
:10091000EC91111108C0D095DE23DC938FBFDF91DD
:10092000CF911F910895DE2BF8CFCF93DF9390E006
:10093000FC01E656FF4F24918A579F4FFC0184919A
:100940008823D1F090E0880F991FFC01EE58FF4FEB
:10095000A591B491FC01E458FF4FC591D491623048
:1009600071F49FB7F8943C91822F809583238C93E8
:10097000E8812E2B28839FBFDF91CF9108958FB7F9
:10098000F894EC912E2B2C938FBFF6CF3FB7F894B1
:1009900080918F0190919001A0919101B09192016D
:1009A00026B5A89B05C02F3F19F00196A11DB11DCA
:1009B0003FBFBA2FA92F982F8827BC01CD01620F06
:1009C000711D811D911D42E0660F771F881F991FC1
:1009D0004A95D1F708958F929F92AF92BF92CF928E
:1009E000DF92EF92FF921F93CF93DF93EC016C3273
:1009F000C8F46A3208F040C0683259F1693209F42B
:100A000048C080E06034C8F16F73FE01E60FF11D4D
:100A1000868D8F3F89F1603108F06DC0642F0E9490
:100A200067042AC06D3209F458C058F384EB860F6E
:100A3000823038F76F73C60FD11D8E8D62E0411181
:100A400005C060E00E94670461E08E8D0E949504FD
:100A500013C07C012EE1E20EF11CD0E0F701819180
:100A60007F018F3F31F061E0D03108F062E00E94F9
:100A70009504DF5FD63191F781E0DF91CF911F912F
:100A8000FF90EF90DF90CF90BF90AF909F908F90AE
:100A90000895C42ED12CF12CE12C0E94C6044B01E8
:100AA0005C01C114D104E104F10431F30E94C604D5
:100AB000681979098A099B09683E73408105910587
:100AC00080F3F1E0CF1AD108E108F10828EE820E98
:100AD00023E0921EA11CB11CE4CF85E090E04330DE
:100AE00010F082E090E0880F991F880F991F0597FA
:100AF0000197F1F7C1CF282F30E0F901E255FF4F00
:100B00008491F901E656FF4FF490F901EA57FF4F3F
:100B10001491112379F081110E943E04E12FF0E03D
:100B2000EE0FFF1FE859FF4FA591B491EC91FE2203
:100B300081E009F480E0898F9FCFDC011A96ED9166
:100B4000FC9130E020E009941F93CF93DF93EC01F8
:100B5000A881B981683109F49BC038F4643109F483
:100B600089C0673149F080E00EC0693109F4D4C012
:100B70006032C9F76AE488C01C968C9180FD3FC042
:100B8000411105C081E0DF91CF911F910895F901D6
:100B900081919F014150DFB7F894A0918801B091F5
:100BA0008901C0918701E0918501F09186017091E2
:100BB00084016091830181110EC08C918C238C93F0
:100BC00088E09081972B9083908196239083815029
:100BD000C1F7DFBFD5CF1091820198E05C9187FF0C
:100BE0000CC0512B5C935081572B5083880F508140
:100BF00056235083915091F7ECCF5C23F3CF4423DD
:100C000009F4C0CFF90181919F014150DFB7F894F9
:100C1000A0918801B0918901C0918701E09185017F
:100C2000F0918601609184017091830181110EC061
:100C30008C918C238C9388E0908197239083908172
:100C4000962B90838150C1F7DFBFD9CF10918201DD
:100C500098E05C9187FF0CC0512B5C935081572327
:100C60005083880F5081562B5083915091F7ECCFD1
:100C70005C23F3CF11964C9169E40E949D05E881B5
:100C8000F9814485417060E4CE010E949D057ACFD0
:100C90004C9169E40E949D05A881B981EA85FB8594
:100CA00030E020E012964C916CE2CE0109958E8DD9
:100CB00090E0FC01EA57FF4FE491F0E0EE0FFF1FD8
:100CC000E458FF4F2591349130938601209385019C
:100CD000FC01E656FF4FE491E0938401E095E09338
:100CE00083018F8D90E0FC01EA57FF4FE491F0E023
:100CF000EE0FFF1FE458FF4F259134913093890187
:100D000020938801FC01E656FF4FE491E0938201B5
:100D1000E095E093870136CFEA85FB8530E020E05F
:100D200013964C916CE20995E881F981418169E45F
:100D3000ABCFDC011696ED91FC9130E020E040E075
:100D400069E10994DC011696ED91FC9130E020E018
:100D500040E068E109949A01DC011696ED91FC915E
:100D6000462F67E10994EF92FF920F931F93CF9361
:100D7000DF931F92CDB7DEB77C018B01D8016C9158
:100D8000673129F150F46531A0F40F90DF91CF91D4
:100D90001F910F91FF90EF9008956A3118F16E3F07
:100DA000A1F7F8014181498369E2C7010E949D05CD
:100DB0000BC0F80141814983D7011696ED91FC9152
:100DC00030E020E0C70109950E5F1F4FD7CFF80133
:100DD00081818983AE014F5F5F4F61E0C7010E944F
:100DE000AB06F2CF0F5F1F4FD7011696ED91FC9126
:100DF00030E020E040E0C7010995C0CF462FDC017C
:100E00001696ED91FC9130E020E065E10994AF92F7
:100E1000BF92CF92DF92EF92FF920F931F93CF93E7
:100E2000DF93EC01693089F486E391E0998388834C
:100E30001C8A81E0DF91CF911F910F91FF90EF907D
:100E4000DF90CF90BF90AF90089579016B3009F497
:100E500040C06F3009F444C080E06A3059F7EA8539
:100E6000FB8530E020E040E068E2CE010995EE81AC
:100E7000FF8130E020E040E064E1CE01099541E0EF
:100E80006BE4CE010E949D05E881F981448169E20D
:100E9000CE010E949D0540E06BE4CE010E949D05BD
:100EA000E881F981448169E2CE010E949D0541E01B
:100EB0006BE4CE010E949D05E881F981458169E2DC
:100EC000CE010E949D0563E271E0CE010E94B3064F
:100ED000B0CF6CE171E04423C1F361E171E0F5CF83
:100EE000F9010481000F000F000F138116950032E5
:100EF00010F00052185FCE010E94A206F701A080F8
:100F0000B1806EE3CE010E94FE066EE3CE010E9428
:100F1000FE06D12C1068602F6D0D6068CE010E9416
:100F2000FE06612FCE010E94FE06F701C280A501D8
:100F30006C2DCE010E94AB06AC0CB11CD394F8E032
:100F4000DF12E9CFCE010E94990673CF9A01DC012E
:100F50001896ED91FC91462F67E10994CF93DF93AA
:100F60001F92CDB7DEB76983AE014F5F5F4F61E07F
:100F70000E94A6070F90DF91CF910895CF92DF9244
:100F8000EF92FF920F931F93CF93DF93EC01142FF7
:100F900079016631C1F130F4643149F06531A9F06D
:100FA00080E040C0673109F446C06A31C8F7E8857F
:100FB000F9859701412FCE01DF91CF911F910F91BC
:100FC000FF90EF90DF90CF90099468EF0E94AE07FA
:100FD00041E06CE2CE010E949D05612F607FCE0151
:100FE0000E94AE0741E06CE2CE010E949D05612F98
:100FF0006295607FCE010E94AE0741E06CE2CE01B7
:101000000E949D050EC068EF0E94AE07612F607FB1
:10101000CE010E94AE07612F6295607FCE010E94D3
:10102000AE0781E0DF91CF911F910F91FF90EF907C
:10103000DF90CF9008956AEF0E94AE0741E06CE226
:10104000CE010E949D05DE2CCF2C012F083008F523
:10105000012F069506950695D12E88EF089FD00C96
:101060001124E8E00E9F800111240E0D1F1DDD20CC
:1010700021F2F801F1908F016F2D607FCE010E9467
:10108000AE076F2D6295607FCE010E94AE07DA94A5
:10109000EECFA2E7B1E0ED2DFC2D9F01285F3F4F81
:1010A0008191982F907F9C938295807F11968C934D
:1010B00011971296E217F30799F7DE2ECF2E0850FC
:1010C00042E751E060E1CE010E94A607BFCF0F9337
:1010D000FC01E05CFF4F0190F081E02D4E1B5F0BA7
:1010E000DC01D496ED91FC9109950F910895CF9371
:1010F000DF93FC01A081B18182AD90E09C0143E0CF
:10110000220F331F4A95E1F737AF26AF50962C9147
:10111000509748E0249F9001112435AF24AF23ADB0
:1011200030E0B90153E0660F771F5A95E1F7EF0100
:10113000C05CDF4F7983688351964C915197E901E8
:10114000C80FD91F50E04C175D0718F4CA01821B65
:10115000930BEF01CE5BDF4F79836883229623E008
:10116000880F991F2A95E1F7860F971F9983888327
:10117000229654968D919C91559799838883E85B2C
:10118000FF4F56968D919C9191838083DF91CF91F3
:1011900008950F931F93FC01E25BFF4F0190F081D4
:1011A000E02DDC01A05BBF4F0D90BC91A02D4A1734
:1011B0005B0740F4E017F10748F00417150730F01B
:1011C00080E019C0E017F107C0F3FACFFC01E65B3D
:1011D000FF4F40815181845B9F4FFC018081918151
:1011E0006817790758F481E04217530720F081E02F
:1011F0002617370728F71F910F91089542175307B5
:10120000B0F3DECF2F923F924F925F926F927F9218
:101210008F929F92AF92BF92CF92DF92EF92FF9206
:101220000F931F93CF93DF93CDB7DEB72A970FB6F7
:10123000F894DEBF0FBECDBF9A878987865B9F4F2C
:101240009A838983FC0111821082E985FA85EA5B21
:10125000FF4F4080518029853A85245B3F4F3C8376
:101260002B83F90151824082E985FA85EE5BFF4FBD
:101270002080318029853A85225B3F4F3E832D8334
:10128000F90131822082E985FA85EC5BFF4F6080AD
:10129000718029853A85205B3F4F38872F83F9017C
:1012A00071826082E985FA85E85AFF4FE080F1801B
:1012B000E985FA85EC5AFF4FA080B180E985FA856F
:1012C000EA5AFF4FC080D180E985FA85EE5AFF4F78
:1012D0008080918087019501A601B40189859A8556
:1012E0000E94C90829853A852C573F4F3A8729879C
:1012F00081111BC0F90110822A960FB6F894DEBF47
:101300000FBECDBFDF91CF911F910F91FF90EF9056
:10131000DF90CF90BF90AF909F908F907F906F9015
:101320005F904F903F902F90089581E0E985FA8576
:1013300080838114910421F0E981FA819182808275
:10134000A414B50420F4EB81FC81B182A0822C149A
:101350003D0420F4ED81FE81D182C082E614F704C1
:1013600058F6EF81F885F182E082C6CF0F93CF93D4
:10137000DF93E02FDC01AC57BF4FFC91FF2309F452
:1013800060C02115310509F45CC02230310538F008
:10139000023009F04AC06F5F7F4F621B730B0E2F44
:1013A0000170E0FD52C0FC01E25BFF4F0190F08153
:1013B000E02D4E175F0708F444C0FC01E05BFF4FCF
:1013C0000190F081E02D4E175F07D8F5FC01E45B3A
:1013D000FF4F0190F081E02DDC01A65BBF4F0D9027
:1013E000BC91A02D260F371F2617370738F56E172B
:1013F0007F0718F59F0121503109A217B30708F59F
:101400006A177B0708F4BD012E173F0708F4F9019E
:10141000E61BF70BEC01AEA9BFA914960D90BC9189
:10142000A02D9F01FD0109950CC0033009F0B7CF35
:101430004F5F5F4F421B530BB2CFBD016E177F074B
:10144000E0F2DF91CF910F910895FC01E65BFF4F31
:101450000190F081E02D6E177F0798F3FC01E45BAB
:10146000FF4F0190F081E02D6E177F0750F7FC01D0
:10147000E05BFF4F0190F081E02DDC01A25BBF4FEC
:101480000D90BC91A02D240F351F24173507A8F40B
:101490004E175F0788F49F0121503109A217B30747
:1014A00080F64A175B0708F4AD012E173F0708F4D2
:1014B000F901E41BF50BAECFAD014E175F0708F63F
:1014C000EDCF213069F038F0223079F0840F911D92
:1014D00047FD9A950895860F911D67FD9A95089589
:1014E000841B910947FD93950895861B910967FD1B
:1014F00093950895213069F038F0223079F0861BF9
:10150000910967FD93950895840F911D47FD9A9564
:101510000895860F911D67FD9A950895841B910982
:1015200047FD939508953F924F925F926F927F92FD
:101530008F929F92AF92BF92CF92DF92EF92FF92E3
:101540000F931F93CF93DF937C01162F442EEC0152
:10155000C25ADF4F5E806F806C018AE8C80ED11CD2
:1015600078847518312E711608F4372C8C809D8084
:101570000E85202F462D652D8A819B810E94610A50
:101580005C01202F462D652DC4010E947A0AAC0112
:10159000442079F08C85F6018083232D30E0B5015D
:1015A000C7010E94B609171548F017196394512C0A
:1015B000D7CF8B858111F7CF8D85EDCF150D1E838C
:1015C0006F82DF91CF911F910F91FF90EF90DF908D
:1015D000CF90BF90AF909F908F907F906F905F90D3
:1015E0004F903F900895DC011A964C911A97ED9117
:1015F000FC911197249130E0042E02C03595279577
:101600000A94E2F7842F860F883068F0319611969D
:10161000FC93EE93E49198E0941B01C0EE0F9A9531
:10162000EAF72E2B88501A968C938FEF9FEF01C00C
:10163000880F6A95EAF7809582230895FC01E60FEA
:10164000F11D849190E0982F88273196E4918E0FB8
:10165000911D08954F925F926F927F928F929F9209
:10166000AF92BF92CF92DF92EF92FF920F931F93B0
:10167000CF93DF93EC016B018A017901FC01E459FE
:10168000FF4F8081813009F44BC008F43EC08230A6
:1016900009F451C0833009F459C0FE01E05AFF4FEC
:1016A000D182C082329611830083389780819181E4
:1016B00047962FEFE216F10411F008F0F2C0E1E6D0
:1016C000EE16F10408F44DC0FE01E058FF4F2081F2
:1016D0003181820F931F9C012F5F3F4FF90144918D
:1016E000411148C090E080E0DF91CF911F910F91B0
:1016F000FF90EF90DF90CF90BF90AF909F908F9032
:101700007F906F905F904F900895FE01E45AFF4FD5
:101710000190F081E02DCE010995080F191FBDCF72
:10172000FE01E45AFF4F0190F081E02DCE010995B2
:10173000C81AD90AB2CFFE01E45AFF4F0190F081D6
:10174000E02DCE010995081B190BA7CFFE01E45A25
:10175000FF4F0190F081E02DCE010995C80ED91EF2
:101760009CCFF1E4EF16F10408F4B5CFFE01E25886
:10177000FF4FADCFFC0144914E151F0409F08CC002
:101780000296009709F4AECF7E01FEE5EF0EF11C44
:10179000F70191838083128673966081C7010E944E
:1017A000F30AF701808774966081C7010E94F30AEB
:1017B000982EF70181875E01FAE8AF0EB11CF501A2
:1017C0009081F701948781E0911180E0F70185878E
:1017D000FE01ED58FF4FC0806C2DC7010E94F30A37
:1017E000582EFE01EC58FF4FD0806D2DC7010E948E
:1017F000F30A482EFE01EB58FF4F1081612FC701FD
:101800000E94F30A9FEF910F01E010E0980101C0E0
:10181000220F9A95EAF7882E821AF701608416142F
:101820000CF0ADC0CA94C80101C0880FCA94EAF791
:10183000581A7684490CDA94A80101C0440FDA944E
:10184000EAF7F42FF4194F2E272D4F2F652DF701AE
:10185000828193810E94610A6C01F70193838283E4
:10186000272D442D652D848195810E947A0AF701E8
:1018700095838483F1E07F1609F485C07F1608F410
:101880003FC022E0721609F48DC0E3E07E1609F431
:101890009DC0BC0196013EC0F9012491820F911DAB
:1018A0001ACFFE01EE57FF4F00811181080F191F5B
:1018B000680160E0C6010E941E0B080F191F62E05C
:1018C000C6010E941E0BF4E0CF0ED11C8E159F05A1
:1018D00080F3F801849190E0982F88273196E49165
:1018E0008E2B009709F4FECEE816F90619F4C8010C
:1018F000039647CFF8013296E4910E0F111DE9CF00
:101900009601260D311D67FC3A95BC01690D711DCC
:1019100097FC7A958B01AC01B601CE010E94C908F3
:10192000882369F1F701168217828E0101591F4F32
:101930006E01F0E7CF0ED11CF8016081C7010E9453
:10194000F30A682EF6016081C7010E94F30A782E1F
:1019500040E0662DCE010E94930A41E0672DCE0142
:101960000E94930A61E0C7010E94F30A8111F0CF3F
:10197000F7018781891504F38485F5018083882D1B
:10198000880C990BB1CE0919110997FC1395960192
:101990002F5F3F4FBC01660D711D67FC7A95C00E2D
:1019A000D11EB8CFA8014619510967FC539596017D
:1019B0002F5F3F4F0919110997FC1395BC016F5F09
:1019C0007F4F800F911FC40ED51EA4CF9601290D05
:1019D000311D97FC3A950619110967FC1395BC0156
:1019E0006F5F7F4F800F911F95CFCF92DF92EF9265
:1019F000FF920F931F93CF93DF931092D10285E054
:101A0000C82E81E0D82EF12CE12C0AE010E0D0E0C5
:101A1000C0E0F60161916F01E091BB02F091BC0260
:101A200089EB92E009958F3F980719F18E3F2FEFD0
:101A3000920779F39C01A801BE0189EB92E00E9414
:101A40002A0B20912503213059F038F0223059F02B
:101A5000233061F0E80EF91EDCCFC80FD91FFACF92
:101A6000080F191FF7CFC81BD90BF4CF081B190B90
:101A7000F1CFC701DF91CF911F910F91FF90EF90B0
:101A8000DF90CF900895CF93DF93EC016BAFEEA979
:101A9000FFA90190F081E02D0995EEA9FFA9028030
:101AA000F381E02DCE01DF91CF910994AF92BF92E7
:101AB000CF92DF92EF92FF920F931F93CF93DF931A
:101AC00000D000D01F92CDB7DEB78C01DC01DA96D2
:101AD000AC90DA97DB96EC90DB97ED91FC91B188B6
:101AE000FE2CD12CC12CD801ED91FC91119780894D
:101AF000D8962D913C911C82FD828B83B8E08B9F00
:101B0000C00111248C9DA0018D9D500D9C9D500DF8
:101B10001124240F351F3A832983D8011496ED919F
:101B2000FC919E012F5F3F4F41E06FE0C801099596
:101B3000F3948F2D8E198A1528F4BFEFCB1ADB0A88
:101B4000FB1488F20F900F900F900F900F90DF9181
:101B5000CF911F910F91FF90EF90DF90CF90BF90AA
:101B6000AF900895CF92DF92EF92FF920F931F9361
:101B7000CF93DF936C01EB017B01E40EF51E10E0C7
:101B800000E0CE15DF0561F06991D601ED91FC9181
:101B90000190F081E02DC6010995080F191FF1CFC2
:101BA000C801DF91CF911F910F91FF90EF90DF90CF
:101BB000CF900895CF92DF92EF92FF920F931F93F1
:101BC000CF93DF93EC016C0124E0C20ED11CFC0129
:101BD000E057FF4F0190F081E02DC60109958E3F3F
:101BE000EFEF9E07D8F48E010C561F4FF80140818D
:101BF00051817E01F2E9EF0EF11CF70160817181E4
:101C00009C01C6010E942A0BC059DF4F2881213058
:101C1000C1F078F02230B9F02330E9F081E090E0B3
:101C2000DF91CF911F910F91FF90EF90DF90CF90B8
:101C30000895F70120813181820F931F9183808362
:101C4000EDCFF801F7CFF70120813181281B390B47
:101C500031832083E3CFF801F7CF089590E080E04F
:101C60000895FC01A081B18150962C9182AD38E09D
:101C7000839FC0011124289FA001299F500D11248A
:101C800070E060E080AD91AD0C9445121F93CF934E
:101C9000DF93EC010E94560D1BAD8AAD180FE88151
:101CA000F9818189181768F0EC81FD8130E020E02E
:101CB00040E060E1CE01099580E0DF91CF911F9176
:101CC0000895FE01E557FF4F8081882319F0CE016A
:101CD0000E94310E612FCE010E94430D81E0EDCFB5
:101CE000CF93DF93EC01FC01E557FF4F8081882300
:101CF00019F0CE010E94310E60E0CE01DF91CF914C
:101D00000C94430DCF9310929B0110929A0188EE90
:101D100093E0A0E0B0E080939C0190939D01A0939C
:101D20009E01B0939F0182E591E090939901809389
:101D3000980185EC90E09093A5018093A40184EC38
:101D400090E09093A7018093A60180EC90E090939F
:101D5000A9018093A80181EC90E09093AB0180935E
:101D6000AA0182EC90E09093AD018093AC0186ECE7
:101D700090E09093AF018093AE011092B101109268
:101D8000B2011092B3011092B4011092B8021092F5
:101D9000B70284ED92E0909346038093450310923E
:101DA00048031092470310924A031092490310927D
:101DB000D10284E691E09093B6028093B50210922E
:101DC000BA021092B9021092CE021092C50210927D
:101DD000C6021092C7021092C8028FEF8093CF0202
:101DE0008093D302E7EDF2E08DEE92E0CFEFC19366
:101DF0008E179F07E1F787E097E09093BE028093EC
:101E0000BD028EEB97E09093C0028093BF0284EAFC
:101E100095E09093C2028093C1028BEE94E0909380
:101E2000C4028093C30230E020E040E069E089EB27
:101E300092E00E94070710921403109213038EED94
:101E400092E09093EE028093ED0285E392E090930E
:101E5000F2028093F10281E08093F3021092F40287
:101E6000109222031092420310923E038093430388
:101E7000809344038CE691E09093F0028093EF020C
:101E800089EB92E00E94770810920C0310920B03EA
:101E90001092100310920F038FEF9FEF90930E0399
:101EA00080930D039093120380931103E091EF024E
:101EB000F091F0020280F381E02D89EB92E0099528
:101EC00087E393E090931603809315031092250304
:101ED0008DE08093D7028BE08093D8028AE08093D4
:101EE000E002C093E202CF9108951F920F920FB6C5
:101EF0000F9211242F933F934F935F936F937F9390
:101F00008F939F93AF93BF93EF93FF93809194012F
:101F100090919501A0919601B0919701892B8A2B00
:101F20008B2BC1F1909193018091000089278093C0
:101F300000008091940190919501A0919601B0913B
:101F40009701181619061A061B069CF48091940135
:101F500090919501A0919601B09197010197A109E7
:101F6000B1098093940190939501A0939601B09349
:101F70009701FF91EF91BF91AF919F918F917F91C9
:101F80006F915F914F913F912F910F900FBE0F90E6
:101F90001F90189580910401E0E5F5E0E4919FEF32
:101FA00090930401E13051F030F0E23069F060E0EC
:101FB0000E946704DECF10926E00F9CF90916F00FF
:101FC0009D7F90936F00F3CF909170009D7F9093D1
:101FD000700091E09093B0009091B100987F946070
:101FE0009093B1001092B300E2CF1F920F920FB600
:101FF0000F9211242F933F934F935F936F937F938F
:102000008F939F93AF93BF93EF93FF9388E991E0F2
:102010000E94AE03FF91EF91BF91AF919F918F917D
:102020007F916F915F914F913F912F910F900FBED4
:102030000F901F9018951F920F920FB60F921124B8
:102040002F938F939F93EF93FF93E091A801F091CB
:10205000A9018081E091AE01F091AF0182FD1BC02A
:1020600090818091B1018F5F8F732091B2018217AF
:1020700041F0E091B101F0E0E856FE4F958F80937A
:10208000B101FF91EF919F918F912F910F900FBE12
:102090000F901F9018958081F4CF789484B582605A
:1020A00084BD84B5816084BD85B5826085BD85B5FC
:1020B000816085BD80916E00816080936E0010927A
:1020C00081008091810082608093810080918100F5
:1020D0008160809381008091800081608093800086
:1020E0008091B10084608093B1008091B0008160E4
:1020F0008093B00080917A00846080937A00809110
:102100007A00826080937A0080917A008160809367
:102110007A0080917A00806880937A001092C100E2
:10212000E091BD02F091BE0230E020E040E06AE0C4
:1021300089EB92E0099589EB92E00E94700E89EBA1
:1021400092E00E94460E8111FACF60E089EB92E0A6
:102150000E94430DE091BD02F091BE0230E020E00C
:1021600040E06BE089EB92E0099589EB92E00E94F8
:10217000700EC2ECD0E087EC282E80E0382E98EC70
:10218000492E90E0592E29EC622E20E0722E0AECA6
:1021900010E03BECE32E30E0F32E4CECC42E40E09C
:1021A000D42E5DECA52E50E0B52E6EEC862E60E0B0
:1021B000962E8091130390911403825C904009F451
:1021C0008BC0D0931403C0931303FE0184918093BA
:1021D0002603E3ECF0E0849180932703E4ECF0E045
:1021E000849180932803E5ECF0E0849180932903A7
:1021F000E6ECF0E0849180932A03F10184918093CE
:102200002B03F201849180932C03F301849180933A
:102210002D03F801849180932E03F701849180931C
:102220002F03F601849180933003F501849180930C
:102230003103F401849180933203EFECF0E0E491F8
:10224000E0933303E0EDF0E0E491E0933403E1ED5B
:10225000F0E0E491E0933503E2EDF0E0E491E09307
:10226000360361E182EC90E00E941E0B90933803EC
:102270008093370363E182EC90E00E941E0B909301
:102280003A038093390365E182EC90E00E941E0BD3
:1022900090933C0380933B0380911303909114032C
:1022A000892BD1F08091330380933F034091340315
:1022B0004093400390913E03992371F0913069F56A
:1022C00090913503891714F490933F03809136035E
:1022D000841714F48093400384ED92E09093BC0241
:1022E0008093BB020E94F50C89EB92E00E94460E9F
:1022F00081115FCF61E089E00E94950461E089E08F
:102300000E946704C0E0D0E02097F1F30E94A4038C
:102310008823D1F30E940000F7CF30913003209141
:102320003203082E000C990B622F022E000C770B43
:10233000630F711D37FD7A95861797071CF4320FCE
:1023400030933F03241744F620934003C5CF1F92D8
:102350000F920FB60F9211242F933F934F935F93D9
:102360006F937F938F939F93AF93BF93EF93FF935D
:10237000E0910201F09103010995FF91EF91BF9166
:10238000AF919F918F917F916F915F914F913F910D
:102390002F910F900FBE0F901F9018951F920F92C4
:1023A0000FB60F9211242F933F934F935F936F9328
:1023B0007F938F939F93AF93BF93EF93FF93E0919E
:1023C0000001F09101010995FF91EF91BF91AF914B
:1023D0009F918F917F916F915F914F913F912F913D
:1023E0000F900FBE0F901F9018951F920F920FB66F
:1023F0000F9211242F933F938F939F93AF93BF938B
:1024000080918B0190918C01A0918D01B0918E01F2
:1024100030918A0123E0230F2D3758F50196A11D35
:10242000B11D20938A0180938B0190938C01A0931E
:102430008D01B0938E0180918F0190919001A091B8
:102440009101B09192010196A11DB11D80938F0160
:1024500090939001A0939101B0939201BF91AF919D
:102460009F918F913F912F910F900FBE0F901F90D2
:10247000189526E8230F0296A11DB11DD2CFEE0FAD
:10248000FF1F0590F491E02D0994DC0101C06D93CC
:0C24900041505040E0F70895F894FFCF51
:10249C003D043D04FF48656C6C6F20553867322154
:1024AC000018153815081534150119FF18153815AD
:1024BC000C19FFFE6418FE0A1538150815061502CE
:1024CC001501FE0A19FF010005050106148C404296
:1024DC000F0003041E2810080000800040000000BC
:1024EC000000D0033A0367031D04980376038A03A4
:1024FC0000000000DA0DB20D2E0E2D0E7708020929
:02250C0067085E
:00000001FF
