:03000000020006F5
:03005F0002000399
:0300030002017A7D
:20006200AF82C2B6C2B57E00BE08005016EF23540124FF92B48F05ED2DFFD2B60000C2B637
:200082000E80E5D2B50000C2B52275900F00007508FF740FB590028064AF90BF0702800FF7
:2000A200BF0B02800FBF0D02800FBF0E14800F750800800D75080180087508028003750887
:2000C2000300007590F0000074FFB50802802EAF90BF70028027BFB002800CBFD002800F12
:2000E200BFE01A80128016E5082404F508800E74082508F5088006740C2508F508759000A2
:20010200000022AF82C3748F8FF063F08095F04004EF30E701227580FF7E00BE08005057A1
:200122008E047D00EFFA3395E0C40354F8CAC403CA6ACA54F8CA6AFBEA2CFCEB3DFDEC24B9
:2001420096F582ED3401F583E493F4F5808E057407C39DFD8DF005F07401800225E0D5F078
:20016200FBF582C007C006120062758200120062D006D0070E80A42212008CE50820E70804
:1001820085088212010580F075820012006280E803
:20019600001C22222222221C000818080808081E001C220408103E00001C22040C02221CE3
:2001B600000028283E080808003E20380402221C000C103C2222221C003E02040810202033
:2001D600001C221C2222221C001C22221E020418000C12213F212100003C223C22223C00B7
:2001F600001E202020201E00003C222222223C00003E203820203E00003E20382020200023
:06003500E478FFF6D8FD9F
:200013007900E94400601B7A00900216780175A000E493F2A308B8000205A0D9F4DAF2757B
:02003300A0FF2C
:20003B007800E84400600A790175A000E4F309D8FC7800E84400600C7900900001E4F0A3C3
:04005B00D8FCD9FAFA
:0D000600758108120192E58260030200037B
:040192007582002250
:00000001FF
