:03000000020006F5
:1B005F0075080075091C750A22750B22750C22750D22750E22750F1C0200039B
:030003000200A454
:20007A00AF82C2B6C2B57E00BE08005016EF23540124FF92B48F05ED2DFFD2B60000C2B61F
:20009A000E80E5D2B50000C2B5227580FF7F00BF080050F6EF2408F9E7F4F5808F067407BF
:2000BA00C39EFE8EF005F07401800225E0D5F0FBF582C00712007A75820012007AD0077DF7
:1A00DA00007E008D038E04C3EB9430EC947550070DBD00EF0E80EC0F80B537
:06003500E478FFF6D8FD9F
:200013007900E94400601B7A009000F8780175A000E493F2A308B8000205A0D9F4DAF2759B
:02003300A0FF2C
:20003B007800E84400600A790175A000E4F309D8FC7800E84400600C7900900001E4F0A3C3
:04005B00D8FCD9FAFA
:0D00060075810F1200F4E582600302000313
:0400F40075820022EF
:00000001FF
