:03000000020006F5
:03005F0002000399
:0300030002008C6C
:20006200AF82C2B6C2B57E00BE08005016EF23540124FF92B48F05ED2DFFD2B60000C2B637
:200082000E80E5D2B50000C2B5227580007F00BF080050F68F068EF005F07401800225E046
:2000A200D5F0FBF4F582C007120062D0077D007E008D038E04C3EB9430EC947550070DBD5C
:0800C20000EF0E80EC0F80C777
:06003500E478FFF6D8FD9F
:200013007900E94400601B7A009000CE780175A000E493F2A308B8000205A0D9F4DAF275C5
:02003300A0FF2C
:20003B007800E84400600A790175A000E4F309D8FC7800E84400600C7900900001E4F0A3C3
:04005B00D8FCD9FAFA
:0D0006007581071200CAE582600302000345
:0400CA007582002219
:00000001FF
