:0400000002001132B7
:03000B0002008967
:05006A00C20002000EBF
:03000E000200806D
:20006F005389F0438901758CFC758A18C28DD28C2212006FD2A9D2AF80FEC0D0A2B292A0E4
:14008F0020B302B200A2009295758CFC758A18C28DD0D032D8
:06004000E478FFF6D8FD94
:20001E007900E94400601B7A009000A7780175A000E493F2A308B8000205A0D9F4DAF275E1
:02003E00A0FF21
:200046007800E84400600A790175A000E4F309D8FC7800E84400600C7900900001E4F0A3B8
:04006600D8FCD9FAEF
:0D0011007581201200A3E582600302000E3D
:0400A3007582002240
:00000001FF
