:0400000002001132B7
:03000B0002008F61
:0B006A00C200C201C202C20302000E6D
:03000E0002008667
:200075005389F0438901758C3C758AB0C28DD28C22120075D2A9D2AF80FEC0D020B102B201
:200095000020B002B20120B202B20220B302B203A20092A0A20192A1A20292A2A20392A358
:0500B500C28DD0D03225
:06004000E478FFF6D8FD94
:20001E007900E94400601B7A009000BE780175A000E493F2A308B8000205A0D9F4DAF275CA
:02003E00A0FF21
:200046007800E84400600A790175A000E4F309D8FC7800E84400600C7900900001E4F0A3B8
:04006600D8FCD9FAEF
:0D0011007581201200BAE582600302000E26
:0400BA007582002229
:00000001FF
