:0400000002001132B7
:03000B0002009B55
:17006A00750800750900750A00750B00C200C201C202C20302000E67
:03000E000200925B
:200081005389F0438901758C3C758AB0C28DD28C22120081D2A9D2AF80FEC0E0C0D0E508E1
:2000A100600B050874EC25085003750800E509600B050974EC25095003750900E50A600B4A
:2000C100050A74EC250A5003750A00E50B600B050B74EC250B5003750B0020B108E50870AB
:2000E10004B200050820B008E5097004B201050920B208E50A7004B202050A20B308E50B76
:1D0101007004B203050BA20092A0A20192A1A20292A2A20392A3C28DD0D0D0E0327B
:06004000E478FFF6D8FD94
:20001E007900E94400601B7A00900122780175A000E493F2A308B8000205A0D9F4DAF27565
:02003E00A0FF21
:200046007800E84400600A790175A000E4F309D8FC7800E84400600C7900900001E4F0A3B8
:04006600D8FCD9FAEF
:0D00110075812012011EE582600302000EC1
:04011E0075820022C4
:00000001FF
