:03000000020006F5
:03005F0002000399
:0300030002007484
:20006200AE82AF838E048F051EBEFF011FEC4D70F32275800075A0007F00BF080050F98F15
:2000820006EE2E25E0F5A0EF9000AB93FE9000BBE4934EF5809000C8C007120062D0077583
:0500A20080000F80D575
:1100AB003F065B4F666D7D077F6F777C395E7971801C
:06003500E478FFF6D8FD9F
:200013007900E94400601B7A009000BC780175A000E493F2A308B8000205A0D9F4DAF275D7
:02003300A0FF2C
:20003B007800E84400600A790175A000E4F309D8FC7800E84400600C7900900001E4F0A3C3
:04005B00D8FCD9FAFA
:0D0006007581071200A7E582600302000368
:0400A700758200223C
:00000001FF
