:03000000020006F5
:03005F0002000399
:03000300020154A3
:20006200AE82AF838E048F051EBEFF011FEC4D70F322AF82D2A78F8090000A120062C2A70D
:2000820090000A020062AF82C2A6C2A58F82120074900064020062AF82D2A6C2A58F82123E
:2000A2000074900064020062AD82AE83AFF08D828E838FF0120192FC60188C82C007C00620
:2000C200C005120099D005D006D0070DBD00DF0E80DC22903A9812006275823012008890D0
:2000E20013881200627582301200889003E8120062758230120088900064120062758238E7
:20010200120088758208120088758201120088758206020088E5825407C40354F8FF744009
:200122004FF5821200887F00BF0800501FEF2508FCE43509FDAE0A8C828D838EF012019278
:20014200F582C007120099D0070F80DC7582800200881200D57508B2750901750A807582E6
:200162000012011775820C1200889001BA75F0801200AA7582C11200887582001200999046
:1001820001C875F0801200AA75820012009980FEE3
:2001B200000A1F1F1F0E040048656C6C6F2C20576F726C64210046726F6D203830353121A8
:0101D200002C
:06003500E478FFF6D8FD9F
:200013007900E94400601B7A009001D3780175A000E493F2A308B8000205A0D9F4DAF275BF
:02003300A0FF2C
:20003B007800E84400600A790175A000E4F309D8FC7800E84400600C7900900001E4F0A3C3
:04005B00D8FCD9FAFA
:0D00060075810A1201AEE58260030200035D
:1C01920020F71430F6148883A88220F507E6A88375830022E280F7E49322E0227C
:0401AE007582002234
:00000001FF
