:03000000020006F5
:03005F0002000399
:03000300020127D0
:20006200AE82AF838E048F051EBEFF011FEC4D70F322AF827E00BE08005014C2A7EF235495
:200082000124FF92A58F05ED2DFFD2A70E80E7C2A722AF82D2A67582F8C007120074D00721
:2000A20074F05FF582C007120074D007EFC454F0FF74F05FF582120074C2A622AF82D2A6F7
:2000C2007582FAC007120074D00774F05FF582C007120074D007EFC454F0FF74F05FF5827B
:2000E200120074C2A622AD82AE83AFF08D828E838FF012013BFC60188C82C007C006C0052E
:200102001200BED005D006D0070DBD00DF0E80DC22C2A7C2B4C2A6909C40120062D2B49019
:190122009C4002006212011375820C12009490015B75F0801200E880FE6C
:0E015B0048656C6C6F2C20576F726C6421002D
:06003500E478FFF6D8FD9F
:200013007900E94400601B7A00900169780175A000E493F2A308B8000205A0D9F4DAF27529
:02003300A0FF2C
:20003B007800E84400600A790175A000E4F309D8FC7800E84400600C7900900001E4F0A3C3
:04005B00D8FCD9FAFA
:0D000600758107120157E5826003020003B7
:1C013B0020F71430F6148883A88220F507E6A88375830022E280F7E49322E022D3
:04015700758200228B
:00000001FF
