:03000000020006F5
:03005F0002000399
:030003000201995E
:20006200AE82AF838E048F051EBEFF011FEC4D70F322AF827E00BE08005014C2A7EF235495
:200082000124FF92A58F05ED2DFFD2A70E80E7C2A722AF82D2A67582F8C007120074D00721
:2000A20074F05FF582C007120074D007EFC454F0FF74F05FF582120074C2A622AF82D2A6F7
:2000C2007582FAC007120074D00774F05FF582C007120074D007EFC454F0FF74F05FF5827B
:2000E200120074C2A622AF8274E02508500D8F0674082EFFE508FE24E0F508E508543F44F1
:2001020080F582C007120094D007740F5F4480F582020094AD82AE83AFF08D828E838FF051
:20012200120221FC60188C82C007C006C0051200BED005D006D0070DBD00DF0E80DC227FAE
:2001420000BF4000502D8F08758200C0071200E8D0077E00BE08005017758200C007C006CC
:200162001200BE7582001200BED006D0070E80E40F80CE22C2A7C2B4C2A6909C4012006221
:20018200D2B4909C401200627582341200941201417582360200941201767F00BF400040C8
:2001A2000302021F8F08758200C0071200E8D0077E00BE080050628F04E4C454F0CCC4CC20
:2001C2006CCC54F0CC6CFD8E027B00EA2AFAEB33FBEA2CFCEB3DFDEC2441F582ED3402F523
:2001E20083E493F582C007C006C005C0041200BED004D005D006D0070CBC00010DEC244129
:1F020200F582ED3402F583E493F582C007C0061200BED006D0070E80990F02019E80FE7E
:2002410000000000000000000000000000000000000000000000000000000000000000009D
:2002610000000000000000000000001008000000000000000000000000000010080000004D
:200281000000000000000000000000081000000000000000000000000000000C1800000021
:2002A10000000000000000000000000DF000000000000000000000000000000FF800000039
:2002C10000000000000000000000000FFC00000008000000000000000000000FFC000000FF
:2002E1007A000000000000000000000E780000007A800000000000000000000F6C00000088
:20030100FDF00000000000000000000EB8000000BD707000000000000000000F4800000035
:20032100FFF5E554000000000000001FD8040000FFFDE80200000A8000002A8FF8B60000BD
:20034100FFFFE80480001040000A84BF75555555FFFFF550A000112800A0ABEFF957AAAA27
:20036100FFFFF68A0000224455157FFFF57576AAFFFFFF69555529250145FFF7F55F7FAB0E
:20038100FFFFFFD5555554A96AAFFFFFF556B7BFFFFFFFD555555556B6AFFFFED7775FEFE6
:2003A100FFFFFFFFFFFFFDB56FBFFFFFBBAD7FFFFFFFFFFFFFFE94DFDFDFFFFFFFABBAEF03
:2003C100FFFFFFEBFFFFFFFFFFBFFFFFFFDAAFF7FFFFFFFFFFDF801FFFBFFFFFFFEED4FF08
:2003E100FFFFFFFD7F5843FFFFFFFFFFFDDB7FDFFFFFFFF802F560FFFFFFFFFFFFEB7ADF2D
:20040100FFFFFFC601ED40FFFFFFFFFFFAEDFD5DFFFFFFEBE1F5507FFFFFFFFFFFEBDB6FF1
:20042100FFFFFFAAA871407FFFFFFFFFF7D7BAB7FFFFFFD5542AD03FFFFFFFFFFFFB77BF76
:20044100FFFFFF54AA15A01FFFFFFFFFFF76FFFFFFFFFF552A85D00FFFFFFFFFFFE9DFBFFB
:20046100000AFD554A87C00FFFFFFFFFFFFFFFFF00000357AAA0E007FFFFFFFFFFFFFFFF04
:200481000000056A45500007FFFFDFFFFFFFFFFF0000055628AA30000033FFFFFFFFFFFFEE
:2004A10000001AAA1554800000208181FFFFFFFF00000A940A2A5000005E0180E00012FF7E
:2004C10000002A50BA95080200768380C000000000002952BAC5E400003FC180E0000000D1
:2004E1000000AA4AE1522950003FE300C00000000000929420A9547F013CFA80C000000040
:2005010000024A7FC055553FC020F800C00000000001577FC01A551FF019F800C0000000E8
:20052100000AA3FB801554BF8023FC0080000000001560A3000D551F8013FF00811A000085
:20054100002AE0040005557C0227FEC045F40C005F55FFFFFFA6AD7C0227F87006972E00AE
:20056100F0AFF5FAAADFABFA142FEA000DD5DF003A3FF6AF6D55EDF94417FA002FEF7F0018
:20058100FDEBADD5B6D5DBF6B83FFC037FFFFF80AFEBED76DB6D7FF55D1FF4091FFFFF80D2
:2005A1007FB6B6DB6DBBFFEFF83FC02BFFFFFF80FFFFFEDB7FFFFFFFFD0E00ABFFFFFF00B9
:2005C1002FFFFFFFFFFFFFFFFA10057FFFFFFF0000007FFFFFFEAAAAFA88157FFFFFFF0085
:2005E1000000000000BFFD5B5A50ABFF55FFFF0000000000000005DFFAAAABFDB555FF8083
:2006010000000000000000001AAAAFFFFFFFFF8000000000000000000D55700000FFFF001A
:2006210000000000000000000FE800000000010000000000000000000000000000000000C1
:06003500E478FFF6D8FD9F
:200013007900E94400601B7A00900641780175A000E493F2A308B8000205A0D9F4DAF2754C
:02003300A0FF2C
:20003B007800E84400600A790175A000E4F309D8FC7800E84400600C7900900001E4F0A3C3
:04005B00D8FCD9FAFA
:0D00060075810812023DE5826003020003CF
:1C02210020F71430F6148883A88220F507E6A88375830022E280F7E49322E022EC
:04023D0075820022A4
:00000001FF
