:0400000002001132B7
:03000B000201816E
:09006A0075080075090202000E80
:03000E0002028E5D
:20007300AE82AF838E048F051EBEFF011FEC4D70F322C2B79001E0120073D2B7900005128D
:20009300007320B7FD9001F4020073AF82751A007E00BE08005024C2B7E51A04F51AEF54C6
:2000B30001FD24FF92B7751A06E51AFD14F51AED70F7D2B7EFC313FF0E80D722751A0075E3
:2000D3001B007F00BF0800502CC2B7E51A04F51AD2B7751A01E51AFE14F51AEE70F7A2B7BE
:2000F300E433FE8FF005F0EE800225E0D5F0FBFE421B0F80CF851B82221200857582CC12C6
:20011300009E75824402009E1200857582CC12009E7582BE12009E1200CFAF827E00C0078D
:20013300C0061200CFAD82D006D0078D047D00EF4205EE42048D828C8322AE82AF838E1A67
:200153008F1B90000A1202F3AE82E583C4CEC4540F6ECE540FCE6ECE8E82F583225389F0D1
:20017300438901758CDC758A00C28DD28C22C0E0C082C083C007C006C001C0D075D0007537
:200193008000E50825E025E0F5A0E508240AF9E79003F893FFE509B50808900408E493FE64
:2001B30042078F80E50804F508E50824F85003750800758CFC758A66C28DD0D0D001D00615
:2001D300D007D083D082D0E032AE82AF837D00BD08005017ED2512FAE43513FBAC148A8292
:2001F3008B838CF0E41202D80D80E48F05ED30E709C3E49EFCE49FFD80048E048F058C0683
:200213008D077515077516008E028F03C3E49A74808BF063F08095F05060E51620E75B7470
:2002330007C39515F8E49516F9E82512F517E93513F518851419751A0A751B008A828B8359
:20025300C003C002120386AC82D002D0038517828518838519F0EC1202D8751A0A751B00CB
:200273008A828B831203BCAC82AD838C068D07151574FFB515021516808E221201707F0036
:20029300BF08005009EF240AF876000F80F2D2A9D2AFC2AF12010CD2AF7F00BF0F00500D68
:2002B300902710C007120073D0070F80EEC2AF12011B12014D75120A7513007514401201D0
:0502D300DCD2AF80CD7C
:1103F8003F065B4F666D7D077F6F777C395E797180CC
:06004000E478FFF6D8FD94
:20001E007900E94400601B7A00900409780175A000E493F2A308B8000205A0D9F4DAF2757B
:02003E00A0FF21
:1B02D80020F71130F6138883A88220F509F6A8837583002280FEF280F5F02225
:1D02F300E582851AF0A4C582C0F0851BF0A4D0F025F0C583851AF0A42583F5832297
:20031000E51A451B60467A01E51A25E0F51AE51B334012F51BE582951AE583951B40030A2A
:2003300080E6C3E51B13F51BE51A13F51AC3E582951AF5F0E583951B4005F58385F082C3F3
:0D035000E51B13F51BE51A13F51ADAE1227F
:200046007800E84400600A790175A000E4F309D8FC7800E84400600C7900900001E4F0A3B8
:04006600D8FCD9FAEF
:20035D007A10E4FBFCE58225E0F582E58333F583EB33FBEC33FCEB951AF5F0EC951B400690
:09037D00FCABF0438201DADD2241
:0D00110075811B1203F4E582600302000EEE
:20038600C2D5E58330E70DD2D5E4C39582F582E49583F583E51B30E70BE4C3951AF51AE479
:1603A600951BF51B12031030D50BE4C39582F582E49583F5832281
:2003BC00C2D5E58330E70DD2D5E4C39582F582E49583F583E51B30E70DB2D5E4C3951AF5B8
:1803DC001AE4951BF51B12035D30D50BE4C39582F582E49583F58322FE
:0403F40075820022EC
:00000001FF
