:0400000002001132B7
:03000B000201CE21
:06006A0075090002000E02
:03000E000202C922
:20007000AE82AF838E048F051EBEFF011FEC4D70F322D2A0D2A1000000000000000000004A
:20009000C2A000000000000000000000C2A10000000000000000000022C2A0000000000007
:2000B0000000000000D2A100000000000000000000D2A00000000000000000000022AF82F8
:2000D0007E00BE08005032EF23540124FF92A08F05ED2DFF00000000000000000000D2A16E
:2000F00000000000000000000000C2A1000000000000000000000E80C9D2A00000000000C4
:200110000000000000D2A17F0030A0160FEF240550F7C2A10000000000000000000075822F
:200130000022C2A100000000000000000000758201227F007E00BE08005026D2A100000064
:2001500000000000000000A2A0E433FDEF4205C2A100000000000000000000ED2DFF0E80F9
:20017000D58F8222AF82C0071200827582A01200CED0078F821200CE8508821200CE0200AB
:20019000A9AF82C0071200827582A01200CED0078F821200CE1200827582A11200CE1201BC
:2001B00042AF82C0071200A9D0078F82225389F0438901758CDC758A00C28DD28C22C0E04C
:2001D000C082C083C007C001C0D075D000758000E50925E025E0F5A0E509240AF9E790041B
:2001F0001D93F580E50904F509E50924F85003750900758CFC758A66C28DD0D0D001D00706
:20021000D083D082D0E032AE82AF837D00BD08005017ED2512FAE43513FBAC148A828B831D
:200230008CF0E412031A0D80E48F05ED30E709C3E49EFCE49FFD80048E048F058C068D077C
:200250007515077516008E028F03C3E49A74808BF063F08095F05060E51620E75B7407C3FD
:200270009515F8E49516F9E82512F517E93513F518851419751A0A751B008A828B83C00323
:20029000C0021203ABAC82D002D0038517828518838519F0EC12031A751A0A751B008A82DD
:2002B0008B831203E1AC82AD838C068D07151574FFB515021516808E221201BDD2AFD2A916
:2002D00020B21990138812007020B210C2AF7508FF758200120174D2AF30B2FD20B3E19085
:2002F000138812007020B3D8C2AF758200120191AF82D2AF7E0075120A8E137514408F82DE
:0A0310008E8312021730B3FD80B691
:11041D003F065B4F666D7D077F6F777C395E797180A6
:06004000E478FFF6D8FD94
:20001E007900E94400601B7A0090042E780175A000E493F2A308B8000205A0D9F4DAF27556
:02003E00A0FF21
:1B031A0020F71130F6138883A88220F509F6A8837583002280FEF280F5F022E2
:20033500E51A451B60467A01E51A25E0F51AE51B334012F51BE582951AE583951B40030A05
:2003550080E6C3E51B13F51BE51A13F51AC3E582951AF5F0E583951B4005F58385F082C3CE
:0D037500E51B13F51BE51A13F51ADAE1225A
:200046007800E84400600A790175A000E4F309D8FC7800E84400600C7900900001E4F0A3B8
:04006600D8FCD9FAEF
:200382007A10E4FBFCE58225E0F582E58333F583EB33FBEC33FCEB951AF5F0EC951B40066B
:0903A200FCABF0438201DADD221C
:0D00110075811B120419E582600302000EC8
:2003AB00C2D5E58330E70DD2D5E4C39582F582E49583F583E51B30E70BE4C3951AF51AE454
:1603CB00951BF51B12033530D50BE4C39582F582E49583F5832237
:2003E100C2D5E58330E70DD2D5E4C39582F582E49583F583E51B30E70DB2D5E4C3951AF593
:180401001AE4951BF51B12038230D50BE4C39582F582E49583F58322B3
:0404190075820022C6
:00000001FF
