:060000000200110200B62F
:03000B0002009D53
:1B006A00750800750900E4F50AF50BF50CF50D14F50EF50FF510F51102000E64
:03000E0002015A92
:200085005389F0438901758CFC758A18C28DD28CD2A922D288D2A822C0E0C0D0B2B4758CD7
:2000A500FC758A1874CE250840020508D0D0D0E032C0E0C0F0C007C006C005C004C0D0757D
:2000C500D000AF08750800758CFC758A180509BF320E7509FEE4F50AF50BF50CF50D803FD5
:2000E500E50920E73AC3E5096480949F5031BF0200402CAF09741FC39FFF8FF005F07F01B6
:200105007E008006EF2FFFEE33FED5F0F7EE3395E0FDFCEF420AEE420BED420CEC420DC3A0
:20012500E509648094A0400C850A0E850B0F850C10850D11D0D0D004D005D006D007D0F032
:20014500D0E032AE82AF838E048F051EBEFF011FEC4D70F322120085120098D2AF758000C0
:2001650075A0007F00BF080050F98F06EE2E25E0F5A0EF2F25E0FE8EF005F0AE0EAD0FACD3
:2001850010AB11800DC3EB13FBEC13FCED13FDEE13FED5F0F0740F5E9001B793F5809000D8
:0E01A500C8C007120148D0077580000F80B750
:1001B7003F065B4F666D7D077F6F777C395E797190
:06004000E478FFF6D8FD94
:20001E007900E94400601B7A009001C7780175A000E493F2A308B8000205A0D9F4DAF275C0
:02003E00A0FF21
:200046007800E84400600A790175A000E4F309D8FC7800E84400600C7900900001E4F0A3B8
:04006600D8FCD9FAEF
:0D0011007581111201B3E582600302000E3B
:0401B300758200222F
:00000001FF
