:040000000200543274
:03000B00020111DE
:200010000000E2FBEAF2802C0000E0FBEAF08024E6B50202EBF62200E2B50202EBF22200D6
:20003000E0B50202EBF02230F6E0A88220F5D3EAC6F582228B822230F6E6A88220F5D980E6
:01005000CFE0
:2000AD00E4F50AF50BF50CF50DF50EF50FF510F511F512F513F514F515F516F517F518F500
:2000CD0019F51AF51BF51CF51DF51EF51FF520F521F522F523F524F525F526F527F528F5BB
:2000ED0029F52AF52BF52CF52DF52EF52FF530F531F532F533F534F535F536F537F538F59B
:04010D003902005162
:03005100020DBCE1
:20011100C0E0C007C006C0D075D000758A67758CFCAE08AF0974012EF508E43FF509D0D09A
:20013100D006D007D0E032C2A9850882850983D2A922AF8274E84FF5BC000000000000006A
:2001510000E5BC30E4FB53BCEFAEBD7F00EE2EFEEF33FFEE2EFEEF33FFACBE5304037D003F
:20017100EC4206ED42077D007C008E828F838DF0EC22C280C281C282C283C284C285C2867B
:20019100C28722AC82AD83AEF0FFEC4D4E4F700CD280D281D282D283D284D285BC010DBD14
:2001B100000ABE0007BF0004D281D282BC0213BD0010BE000DBF000AD280D281D283D28473
:2001D100D286BC0313BD0010BE000DBF000AD280D281D282D283D286BC0411BD000EBE0083
:2001F1000BBF0008D281D282D285D286BC0513BD0010BE000DBF000AD280D282D283D2853F
:20021100D286BC0615BD0012BE000FBF000CD280D282D283D284D285D286BC070FBD000C9C
:20023100BE0009BF0006D280D281D282BC0817BD0014BE0011BF000ED280D281D282D28392
:20025100D284D285D286BC0915BD0012BE000FBF000CD280D281D282D283D285D286BC0A84
:200271000BBD0008BE0005BF0002D28622C37404953AE4953B50030203B0E53A75F003A4AE
:20029100900295730202A40202CB0202FE020352020391E4F50AF50BF50CF50DF50EF50F60
:2002B100F510F511F512F513F514F515751609F517F518F519753A01F53B850A82850B8341
:2002D100850CF0E50D120194E5164517451845197002D287C2A0120138E5828583F02402E4
:2002F100F53CE435F0F53D753A02753B00120138E5828583F0C3953CE5F0953D30E7012201
:20031100D2A0120183850E82850F838510F0E5111201947401B5160C14B51708B51805B5BB
:20033100190280028002D287C2A1120138E5828583F02402F53CE435F0F53D753A03753B33
:2003510000120138E5828583F0C3953CE5F0953D30E70122D2A112018385128285138385AB
:2003710014F0E515120194C2A2120138E5828583F02402F53CE435F0F53D753A04753B00C4
:20039100120138E5828583F0C3953CE5F0953D30E70122D2A2120183753A01753B0022752C
:2003B1003AFF753BFF22C37403953EE4953F5003020D6FE53E75F003A49003CE730203DAAA
:2003D1000203F0020448020D55E4F51AF51BF51CF51DF51EF51FF520F521753E01F53F20E5
:2003F100B276E51E451F452045217060051AE4B51A0C051BB51B07051CB51C02051DC374A0
:2004110002951AE4951BE4951C7480851DF063F08095F05009E4F51AF51BF51CF51DC2CD05
:20043100120138E5828583F0241EF540E435F0F541753E02753F00120138E5828583F0C375
:200451009540E5F0954130E70122D2CD751E01E4F51FF520F5218009E4F51EF51FF520F5DD
:2004710021E51A451B451C451D600302050D75820012014385824285834385F044F545904D
:200491001388E4F5F0120EBBAC82AD83AEF0FF7542FF754303E4F544F5458C828D838EF0AD
:2004B100EF120F7885822285832385F024F525E5222522FCE52333FDE52433FEE52533FFA4
:2004D100EC2CFCED33FDEE33FEEF33FF75420AE4F543F544F5458C828D838EF0EF120F7826
:2004F10085822685832785F028F529E4F516F517F518F519F52AF52BF52CF52D7401B51AF8
:200511000C14B51B08B51C05B51D0280030205AF75820112014385824285834385F044F55F
:2005310045901388E4F5F0120EBBAC82AD83AEF0FF7542FF754303E4F544F5458C828D83B5
:200551008EF0EF120F7885822285832385F024F5258522428523438524448525459000320B
:20057100E4F5F0120EBBAC82AD83AEF0FF75422FE4F543F544F5458C828D838EF0EF120FAA
:200591007885822685832785F028F529751609E4F517F518F519F52AF52BF52CF52D740224
:2005B100B51A0CE4B51B08B51C05B51D028003020BDB75820212014385824285834385F026
:2005D10044F545901388E4F5F0120EBBAC82AD83AEF0FF7542FF754303E4F544F5458C82EC
:2005F1008D838EF0EF120F7885822285832385F024F525E522244FF52EE52334FEF52FE5ED
:200611002434FFF530E52534FFF531852E42852F43853044853145900064E4F5F0120EBB72
:20063100AC82AD83AEF0FF75422C754301E4F544F5458C828D838EF0EF120F7885822E85DD
:20065100832F85F030F531E52E2438F52EE52F34FFF52FE53034FFF530E53134FFF531C370
:2006710074DD952274029523E4952474808525F063F08095F0506CE5222423F52EE5233447
:20069100FDF52FE52434FFF530E52534FFF531852E42852F43853044853145900064E4F5B7
:2006B100F0120EBBAC82AD83AEF0FF75429D754301E4F544F5458C828D838EF0EF120F78DB
:2006D10085822E85832F85F030F531E52E249CF52EE52F34FFF52FE53034FFF530E53134BA
:2006F100FFF531C3747A952274049523E4952474808525F063F08095F05054E5222486F55F
:200711002EE52334FBF52FE52434FFF530E52534FFF531852E42852F43853044853145900B
:200731000064E4F5F0120EBBAC82AD83AEF0FF7542FF754301E4F544F5458C828D838EF043
:20075100EF120F7885822E85832F85F030F531C37479952274069523E4952474808525F005
:2007710063F08095F05069E5222487F52EE52334F9F52FE52434FFF530E52534FFF53185E0
:200791002E42852F43853044853145900064E4F5F0120EBBAC82AD83AEF0FF7542327543B9
:2007B10002E4F544F5458C828D838EF0EF120F7885822E85832F85F030F5317464252EF554
:2007D1002EE4352FF52FE43530F530E43531F531C374AB952274089523E495247480852588
:2007F100F063F08095F05069E5222455F52EE52334F7F52FE52434FFF530E52534FFF53129
:20081100852E42852F43853044853145900064E4F5F0120EBBAC82AD83AEF0FF75422975FF
:200831004302E4F544F5458C828D838EF0EF120F7885822E85832F85F030F53174C8252E21
:20085100F52EE4352FF52FE43530F530E43531F531C374D49522740A9523E495247480850C
:2008710025F063F08095F0506AE522242CF52EE52334F5F52FE52434FFF530E52534FFF5DE
:2008910031852E42852F43853044853145900064E4F5F0120EBBAC82AD83AEF0FF7542F0FC
:2008B100754301E4F544F5458C828D838EF0EF120F7885822E85832F85F030F531742C25F7
:2008D1002EF52E7401352FF52FE43530F530E43531F531C374C49522740C9523E4952474E0
:2008F100808525F063F08095F0506AE522243CF52EE52334F3F52FE52434FFF530E525343F
:20091100FFF531852E42852F43853044853145900064E4F5F0120EBBAC82AD83AEF0FF75B9
:20093100429C754301E4F544F5458C828D838EF0EF120F7885822E85832F85F030F53174E9
:2009510090252EF52E7401352FF52FE43530F530E43531F531C374609522740E9523E495A4
:200971002474808525F063F08095F0506AE52224A0F52EE52334F1F52FE52434FFF530E51D
:200991002534FFF531852E42852F43853044853145900064E4F5F0120EBBAC82AD83AEF054
:2009B100FF754244754301E4F544F5458C828D838EF0EF120F7885822E85832F85F030F5F2
:2009D1003174F4252EF52E7401352FF52FE43530F530E43531F531C374A49522740F95234F
:2009F100E4952474808525F063F08095F05069E522245CF52EE52334F0F52FE52434FFF57F
:200A110030E52534FFF531852E42852F43853044853145900064E4F5F0120EBBAC82AD835C
:200A3100AEF0FF7542F8E4F543F544F5458C828D838EF0EF120F7885822E85832F85F03095
:200A5100F5317458252EF52E7402352FF52FE43530F530E43531F531C3749C95227410959E
:200A710023E4952474808525F063F08095F05069E5222464F52EE52334EFF52FE52434FFC9
:200A9100F530E52534FFF531852E42852F43853044853145900064E4F5F0120EBBAC82AD6A
:200AB10083AEF0FF7542B8E4F543F544F5458C828D838EF0EF120F7885822E85832F85F002
:200AD10030F53174BC252EF52E7402352FF52FE43530F530E43531F531C374549522741166
:200AF1009523E4952474808525F063F08095F05069E52224ACF52EE52334EEF52FE524346C
:200B1100FFF530E52534FFF531852E42852F43853044853145900064E4F5F0120EBBAC8297
:200B3100AD83AEF0FF754289E4F543F544F5458C828D838EF0EF120F7885822E85832F85F3
:200B5100F030F5317420252EF52E7403352FF52FE43530F530E43531F531E53130E74DC31A
:200B7100E4952EF526E4952FF527E49530F528E49531F52975420AE4F543F544F545852655
:200B9100828527838528F0E529120F7885822685832785F028F529752A01E4F52BF52CF57E
:200BB1002D751609F517F518F519801E852E26852F27853028853129E4F52AF52BF52CF5F5
:200BD1002D751601F517F518F519C374E7952674039527E4952874808529F063F08095F08D
:200BF100500B7526E7752703E4F528F529E526C39536F532E5279537F533E5289538F53486
:200C1100E5299539F53530E715C3E49532F532E49533F533E49534F534E49535F535C37443
:200C3100019532E49533E4953474808535F063F08095F04003020D3E85263685273785288B
:200C5100388529397401B52A0C14B52B08B52C05B52D0280028052750A0AE4F50BF50CF587
:200C71000D75420AF543F544F5458536828537838538F0E539120F7885820E85830F85F069
:200C910010F51175420AE4F543F544F5458536828537838538F0E539120F2985821285832B
:200CB1001385F014F515020D3E754264E4F543F544F5458536828537838538F0E539120F1E
:200CD1007885820A85830B85F00CF50D75420AE4F543F544F5458536828537838538F0E586
:200CF10039120F78AC82AD83AEF0FF75420AE4F543F544F5458C828D838EF0EF120F29856C
:200D1100820E85830F85F010F51175420AE4F543F544F5458536828537838538F0E53912E7
:200D31000F2985821285831385F014F515120138E5828583F02432F540E435F0F541753E7C
:200D510003753F00120138E5828583F0C39540E5F0954130E70122753E01753F0022753E67
:200D7100FF753FFF22E593759300E5947594FF5395F843960753C9DF43CA20C280C281C25E
:200D910082C283C284C285C286C287D2A0D2A1D2A2D2CD759D074391075392F875BCE05330
:200DB1008E7FE58954F04401F58922120D76758A67758CFCD2A9D2AFD28C12027E1203B7CE
:020DD10080F8A8
:200DD300F9E54245434544454560777800C308E54520E73BE54225E0F542E54333F543E5E4
:200DF3004433F544E54533F545E5829542E5839543E5F09544E9954550D4C3E54513F5454C
:200E1300E54413F544E54313F543E54213F542E5829542FCE5839543FDE5F09544FEE995C5
:200E3300454007F98EF08D838C82C3E54513F545E54413F544E54313F543E54213F542D813
:030E5300CEE922C3
:200E5600FB7A20E4FCFDFEFFE5822582F582E58333F583E5F033F5F0EB33FB4017DAE980D5
:200E760042E5822582F582E58333F583E5F033F5F0EB33FBEC33FCED33FDEE33FEEF33FF04
:200E9600EC9542ED9543EE9544EF95454013EC9542FCED9543FDEE9544FEEF9545FF4382FE
:050EB60001DABEEB2291
:06008300E478FFF6D8FD51
:200061007900E94400601B7A00900FCE780175A000E493F2A308B8000205A0D9F4DAF27568
:02008100A0FFDE
:200EBB00AAF0FBE5828542F0A4FCADF0E5838542F0A42DFDE435F0FEE5828543F0A42DFD46
:200EDB00E5F03EFEE433FFEA8542F0A42EFEE5F03FFFE5838543F0A42EFEE5F03FFFE582E2
:200EFB008544F0A42EFEE5F03FFFEB8542F0A42FFFEA8543F0A42FFFE5838544F0A42FFF60
:0E0F1B00E5828545F0A42F8EF08D838C822216
:200089007800E84400600A790175A000E4F309D8FC7800E84400600C7900900001E4F0A375
:0400A900D8FCD9FAAC
:200F2900F9C2D530E715D2D5E4C39582F582E49583F583E495F0F5F0E499F9E54530E71582
:200F4900E4C39542F542E49543F543E49544F544E49545F545E9120DD330D512E4C3958241
:0F0F6900F582E49583F583E495F0F5F0E49922A1
:200F7800FBC2D530E715D2D5E4C39582F582E49583F583E495F0F5F0E49BFBE54530E7172B
:200F9800B2D5E4C39542F542E49543F543E49544F544E49545F545EB120E5630D513FBE4C3
:120FB800C39582F582E49583F583E495F0F5F0E49B2273
:0D005400758145120FCAE58260030200515C
:040FCA00758200220A
:00000001FF
